{
	"contracts/ExtraHomeWork/Lesson1.sol": {
		"Lesson1": {
			"abi": [
				{
					"inputs": [
						{
							"internalType": "uint256",
							"name": "a",
							"type": "uint256"
						},
						{
							"internalType": "uint256",
							"name": "b",
							"type": "uint256"
						}
					],
					"name": "testIfElse",
					"outputs": [
						{
							"internalType": "string",
							"name": "x",
							"type": "string"
						}
					],
					"stateMutability": "pure",
					"type": "function"
				},
				{
					"inputs": [
						{
							"internalType": "uint256",
							"name": "x",
							"type": "uint256"
						}
					],
					"name": "testLoop",
					"outputs": [
						{
							"internalType": "uint256",
							"name": "z",
							"type": "uint256"
						}
					],
					"stateMutability": "pure",
					"type": "function"
				},
				{
					"inputs": [
						{
							"internalType": "uint256",
							"name": "x",
							"type": "uint256"
						},
						{
							"internalType": "uint256",
							"name": "y",
							"type": "uint256"
						}
					],
					"name": "testTernaryOperator",
					"outputs": [
						{
							"internalType": "uint256",
							"name": "",
							"type": "uint256"
						}
					],
					"stateMutability": "pure",
					"type": "function"
				}
			],
			"devdoc": {
				"kind": "dev",
				"methods": {},
				"version": 1
			},
			"evm": {
				"assembly": "    /* \"contracts/ExtraHomeWork/Lesson1.sol\":60:619  contract Lesson1 {... */\n  mstore(0x40, 0x80)\n  callvalue\n  dup1\n  iszero\n  tag_1\n  jumpi\n  0x00\n  dup1\n  revert\ntag_1:\n  pop\n  dataSize(sub_0)\n  dup1\n  dataOffset(sub_0)\n  0x00\n  codecopy\n  0x00\n  return\nstop\n\nsub_0: assembly {\n        /* \"contracts/ExtraHomeWork/Lesson1.sol\":60:619  contract Lesson1 {... */\n      mstore(0x40, 0x80)\n      callvalue\n      dup1\n      iszero\n      tag_1\n      jumpi\n      0x00\n      dup1\n      revert\n    tag_1:\n      pop\n      jumpi(tag_2, lt(calldatasize, 0x04))\n      shr(0xe0, calldataload(0x00))\n      dup1\n      0x1f0ce917\n      eq\n      tag_3\n      jumpi\n      dup1\n      0xbf1ca5bd\n      eq\n      tag_4\n      jumpi\n      dup1\n      0xc7e35dbe\n      eq\n      tag_5\n      jumpi\n    tag_2:\n      0x00\n      dup1\n      revert\n        /* \"contracts/ExtraHomeWork/Lesson1.sol\":480:614  function testLoop(uint x) public pure returns(uint z) {... */\n    tag_3:\n      tag_6\n      0x04\n      dup1\n      calldatasize\n      sub\n      dup2\n      add\n      swap1\n      tag_7\n      swap2\n      swap1\n      tag_8\n      jump\t// in\n    tag_7:\n      tag_9\n      jump\t// in\n    tag_6:\n      mload(0x40)\n      tag_10\n      swap2\n      swap1\n      tag_11\n      jump\t// in\n    tag_10:\n      mload(0x40)\n      dup1\n      swap2\n      sub\n      swap1\n      return\n        /* \"contracts/ExtraHomeWork/Lesson1.sol\":323:455  function testTernaryOperator(uint x, uint y) public pure returns(uint){... */\n    tag_4:\n      tag_12\n      0x04\n      dup1\n      calldatasize\n      sub\n      dup2\n      add\n      swap1\n      tag_13\n      swap2\n      swap1\n      tag_14\n      jump\t// in\n    tag_13:\n      tag_15\n      jump\t// in\n    tag_12:\n      mload(0x40)\n      tag_16\n      swap2\n      swap1\n      tag_11\n      jump\t// in\n    tag_16:\n      mload(0x40)\n      dup1\n      swap2\n      sub\n      swap1\n      return\n        /* \"contracts/ExtraHomeWork/Lesson1.sol\":101:290  function testIfElse(uint a, uint b) public pure returns(string memory x) {... */\n    tag_5:\n      tag_17\n      0x04\n      dup1\n      calldatasize\n      sub\n      dup2\n      add\n      swap1\n      tag_18\n      swap2\n      swap1\n      tag_14\n      jump\t// in\n    tag_18:\n      tag_19\n      jump\t// in\n    tag_17:\n      mload(0x40)\n      tag_20\n      swap2\n      swap1\n      tag_21\n      jump\t// in\n    tag_20:\n      mload(0x40)\n      dup1\n      swap2\n      sub\n      swap1\n      return\n        /* \"contracts/ExtraHomeWork/Lesson1.sol\":480:614  function testLoop(uint x) public pure returns(uint z) {... */\n    tag_9:\n        /* \"contracts/ExtraHomeWork/Lesson1.sol\":526:532  uint z */\n      0x00\n        /* \"contracts/ExtraHomeWork/Lesson1.sol\":549:555  uint i */\n      dup1\n        /* \"contracts/ExtraHomeWork/Lesson1.sol\":558:559  0 */\n      0x00\n        /* \"contracts/ExtraHomeWork/Lesson1.sol\":549:559  uint i = 0 */\n      swap1\n      pop\n        /* \"contracts/ExtraHomeWork/Lesson1.sol\":545:607  for(uint i = 0; i <= x; i++) {... */\n    tag_23:\n        /* \"contracts/ExtraHomeWork/Lesson1.sol\":566:567  x */\n      dup3\n        /* \"contracts/ExtraHomeWork/Lesson1.sol\":561:562  i */\n      dup2\n        /* \"contracts/ExtraHomeWork/Lesson1.sol\":561:567  i <= x */\n      gt\n        /* \"contracts/ExtraHomeWork/Lesson1.sol\":545:607  for(uint i = 0; i <= x; i++) {... */\n      tag_24\n      jumpi\n        /* \"contracts/ExtraHomeWork/Lesson1.sol\":594:595  i */\n      dup1\n        /* \"contracts/ExtraHomeWork/Lesson1.sol\":589:595  z += i */\n      dup3\n      tag_26\n      swap2\n      swap1\n      tag_27\n      jump\t// in\n    tag_26:\n      swap2\n      pop\n        /* \"contracts/ExtraHomeWork/Lesson1.sol\":569:572  i++ */\n      dup1\n      dup1\n      tag_28\n      swap1\n      tag_29\n      jump\t// in\n    tag_28:\n      swap2\n      pop\n      pop\n        /* \"contracts/ExtraHomeWork/Lesson1.sol\":545:607  for(uint i = 0; i <= x; i++) {... */\n      jump(tag_23)\n    tag_24:\n      pop\n        /* \"contracts/ExtraHomeWork/Lesson1.sol\":480:614  function testLoop(uint x) public pure returns(uint z) {... */\n      swap2\n      swap1\n      pop\n      jump\t// out\n        /* \"contracts/ExtraHomeWork/Lesson1.sol\":323:455  function testTernaryOperator(uint x, uint y) public pure returns(uint){... */\n    tag_15:\n        /* \"contracts/ExtraHomeWork/Lesson1.sol\":388:392  uint */\n      0x00\n        /* \"contracts/ExtraHomeWork/Lesson1.sol\":404:410  uint z */\n      dup1\n        /* \"contracts/ExtraHomeWork/Lesson1.sol\":418:419  y */\n      dup3\n        /* \"contracts/ExtraHomeWork/Lesson1.sol\":414:415  x */\n      dup5\n        /* \"contracts/ExtraHomeWork/Lesson1.sol\":414:419  x > y */\n      gt\n        /* \"contracts/ExtraHomeWork/Lesson1.sol\":413:428  (x > y) ? x : y */\n      tag_31\n      jumpi\n        /* \"contracts/ExtraHomeWork/Lesson1.sol\":427:428  y */\n      dup3\n        /* \"contracts/ExtraHomeWork/Lesson1.sol\":413:428  (x > y) ? x : y */\n      jump(tag_32)\n    tag_31:\n        /* \"contracts/ExtraHomeWork/Lesson1.sol\":423:424  x */\n      dup4\n        /* \"contracts/ExtraHomeWork/Lesson1.sol\":413:428  (x > y) ? x : y */\n    tag_32:\n        /* \"contracts/ExtraHomeWork/Lesson1.sol\":404:428  uint z = (x > y) ? x : y */\n      swap1\n      pop\n        /* \"contracts/ExtraHomeWork/Lesson1.sol\":446:447  z */\n      dup1\n        /* \"contracts/ExtraHomeWork/Lesson1.sol\":439:447  return z */\n      swap2\n      pop\n      pop\n        /* \"contracts/ExtraHomeWork/Lesson1.sol\":323:455  function testTernaryOperator(uint x, uint y) public pure returns(uint){... */\n      swap3\n      swap2\n      pop\n      pop\n      jump\t// out\n        /* \"contracts/ExtraHomeWork/Lesson1.sol\":101:290  function testIfElse(uint a, uint b) public pure returns(string memory x) {... */\n    tag_19:\n        /* \"contracts/ExtraHomeWork/Lesson1.sol\":157:172  string memory x */\n      0x60\n        /* \"contracts/ExtraHomeWork/Lesson1.sol\":192:193  b */\n      dup2\n        /* \"contracts/ExtraHomeWork/Lesson1.sol\":188:189  a */\n      dup4\n        /* \"contracts/ExtraHomeWork/Lesson1.sol\":188:193  a > b */\n      gt\n        /* \"contracts/ExtraHomeWork/Lesson1.sol\":185:283  if(a > b) {... */\n      iszero\n      tag_34\n      jumpi\n        /* \"contracts/ExtraHomeWork/Lesson1.sol\":210:224  return \"a > b\" */\n      mload(0x40)\n      dup1\n      0x40\n      add\n      0x40\n      mstore\n      dup1\n      0x05\n      dup2\n      mstore\n      0x20\n      add\n      0x61203e2062000000000000000000000000000000000000000000000000000000\n      dup2\n      mstore\n      pop\n      swap1\n      pop\n      jump(tag_33)\n        /* \"contracts/ExtraHomeWork/Lesson1.sol\":185:283  if(a > b) {... */\n    tag_34:\n        /* \"contracts/ExtraHomeWork/Lesson1.sol\":257:271  return \"a < b\" */\n      mload(0x40)\n      dup1\n      0x40\n      add\n      0x40\n      mstore\n      dup1\n      0x05\n      dup2\n      mstore\n      0x20\n      add\n      0x61203c2062000000000000000000000000000000000000000000000000000000\n      dup2\n      mstore\n      pop\n      swap1\n      pop\n        /* \"contracts/ExtraHomeWork/Lesson1.sol\":101:290  function testIfElse(uint a, uint b) public pure returns(string memory x) {... */\n    tag_33:\n      swap3\n      swap2\n      pop\n      pop\n      jump\t// out\n        /* \"#utility.yul\":88:205   */\n    tag_37:\n        /* \"#utility.yul\":197:198   */\n      0x00\n        /* \"#utility.yul\":194:195   */\n      dup1\n        /* \"#utility.yul\":187:199   */\n      revert\n        /* \"#utility.yul\":334:411   */\n    tag_39:\n        /* \"#utility.yul\":371:378   */\n      0x00\n        /* \"#utility.yul\":400:405   */\n      dup2\n        /* \"#utility.yul\":389:405   */\n      swap1\n      pop\n        /* \"#utility.yul\":334:411   */\n      swap2\n      swap1\n      pop\n      jump\t// out\n        /* \"#utility.yul\":417:539   */\n    tag_40:\n        /* \"#utility.yul\":490:514   */\n      tag_55\n        /* \"#utility.yul\":508:513   */\n      dup2\n        /* \"#utility.yul\":490:514   */\n      tag_39\n      jump\t// in\n    tag_55:\n        /* \"#utility.yul\":483:488   */\n      dup2\n        /* \"#utility.yul\":480:515   */\n      eq\n        /* \"#utility.yul\":470:533   */\n      tag_56\n      jumpi\n        /* \"#utility.yul\":529:530   */\n      0x00\n        /* \"#utility.yul\":526:527   */\n      dup1\n        /* \"#utility.yul\":519:531   */\n      revert\n        /* \"#utility.yul\":470:533   */\n    tag_56:\n        /* \"#utility.yul\":417:539   */\n      pop\n      jump\t// out\n        /* \"#utility.yul\":545:684   */\n    tag_41:\n        /* \"#utility.yul\":591:596   */\n      0x00\n        /* \"#utility.yul\":629:635   */\n      dup2\n        /* \"#utility.yul\":616:636   */\n      calldataload\n        /* \"#utility.yul\":607:636   */\n      swap1\n      pop\n        /* \"#utility.yul\":645:678   */\n      tag_58\n        /* \"#utility.yul\":672:677   */\n      dup2\n        /* \"#utility.yul\":645:678   */\n      tag_40\n      jump\t// in\n    tag_58:\n        /* \"#utility.yul\":545:684   */\n      swap3\n      swap2\n      pop\n      pop\n      jump\t// out\n        /* \"#utility.yul\":690:1019   */\n    tag_8:\n        /* \"#utility.yul\":749:755   */\n      0x00\n        /* \"#utility.yul\":798:800   */\n      0x20\n        /* \"#utility.yul\":786:795   */\n      dup3\n        /* \"#utility.yul\":777:784   */\n      dup5\n        /* \"#utility.yul\":773:796   */\n      sub\n        /* \"#utility.yul\":769:801   */\n      slt\n        /* \"#utility.yul\":766:885   */\n      iszero\n      tag_60\n      jumpi\n        /* \"#utility.yul\":804:883   */\n      tag_61\n      tag_37\n      jump\t// in\n    tag_61:\n        /* \"#utility.yul\":766:885   */\n    tag_60:\n        /* \"#utility.yul\":924:925   */\n      0x00\n        /* \"#utility.yul\":949:1002   */\n      tag_62\n        /* \"#utility.yul\":994:1001   */\n      dup5\n        /* \"#utility.yul\":985:991   */\n      dup3\n        /* \"#utility.yul\":974:983   */\n      dup6\n        /* \"#utility.yul\":970:992   */\n      add\n        /* \"#utility.yul\":949:1002   */\n      tag_41\n      jump\t// in\n    tag_62:\n        /* \"#utility.yul\":939:1002   */\n      swap2\n      pop\n        /* \"#utility.yul\":895:1012   */\n      pop\n        /* \"#utility.yul\":690:1019   */\n      swap3\n      swap2\n      pop\n      pop\n      jump\t// out\n        /* \"#utility.yul\":1025:1143   */\n    tag_42:\n        /* \"#utility.yul\":1112:1136   */\n      tag_64\n        /* \"#utility.yul\":1130:1135   */\n      dup2\n        /* \"#utility.yul\":1112:1136   */\n      tag_39\n      jump\t// in\n    tag_64:\n        /* \"#utility.yul\":1107:1110   */\n      dup3\n        /* \"#utility.yul\":1100:1137   */\n      mstore\n        /* \"#utility.yul\":1025:1143   */\n      pop\n      pop\n      jump\t// out\n        /* \"#utility.yul\":1149:1371   */\n    tag_11:\n        /* \"#utility.yul\":1242:1246   */\n      0x00\n        /* \"#utility.yul\":1280:1282   */\n      0x20\n        /* \"#utility.yul\":1269:1278   */\n      dup3\n        /* \"#utility.yul\":1265:1283   */\n      add\n        /* \"#utility.yul\":1257:1283   */\n      swap1\n      pop\n        /* \"#utility.yul\":1293:1364   */\n      tag_66\n        /* \"#utility.yul\":1361:1362   */\n      0x00\n        /* \"#utility.yul\":1350:1359   */\n      dup4\n        /* \"#utility.yul\":1346:1363   */\n      add\n        /* \"#utility.yul\":1337:1343   */\n      dup5\n        /* \"#utility.yul\":1293:1364   */\n      tag_42\n      jump\t// in\n    tag_66:\n        /* \"#utility.yul\":1149:1371   */\n      swap3\n      swap2\n      pop\n      pop\n      jump\t// out\n        /* \"#utility.yul\":1377:1851   */\n    tag_14:\n        /* \"#utility.yul\":1445:1451   */\n      0x00\n        /* \"#utility.yul\":1453:1459   */\n      dup1\n        /* \"#utility.yul\":1502:1504   */\n      0x40\n        /* \"#utility.yul\":1490:1499   */\n      dup4\n        /* \"#utility.yul\":1481:1488   */\n      dup6\n        /* \"#utility.yul\":1477:1500   */\n      sub\n        /* \"#utility.yul\":1473:1505   */\n      slt\n        /* \"#utility.yul\":1470:1589   */\n      iszero\n      tag_68\n      jumpi\n        /* \"#utility.yul\":1508:1587   */\n      tag_69\n      tag_37\n      jump\t// in\n    tag_69:\n        /* \"#utility.yul\":1470:1589   */\n    tag_68:\n        /* \"#utility.yul\":1628:1629   */\n      0x00\n        /* \"#utility.yul\":1653:1706   */\n      tag_70\n        /* \"#utility.yul\":1698:1705   */\n      dup6\n        /* \"#utility.yul\":1689:1695   */\n      dup3\n        /* \"#utility.yul\":1678:1687   */\n      dup7\n        /* \"#utility.yul\":1674:1696   */\n      add\n        /* \"#utility.yul\":1653:1706   */\n      tag_41\n      jump\t// in\n    tag_70:\n        /* \"#utility.yul\":1643:1706   */\n      swap3\n      pop\n        /* \"#utility.yul\":1599:1716   */\n      pop\n        /* \"#utility.yul\":1755:1757   */\n      0x20\n        /* \"#utility.yul\":1781:1834   */\n      tag_71\n        /* \"#utility.yul\":1826:1833   */\n      dup6\n        /* \"#utility.yul\":1817:1823   */\n      dup3\n        /* \"#utility.yul\":1806:1815   */\n      dup7\n        /* \"#utility.yul\":1802:1824   */\n      add\n        /* \"#utility.yul\":1781:1834   */\n      tag_41\n      jump\t// in\n    tag_71:\n        /* \"#utility.yul\":1771:1834   */\n      swap2\n      pop\n        /* \"#utility.yul\":1726:1844   */\n      pop\n        /* \"#utility.yul\":1377:1851   */\n      swap3\n      pop\n      swap3\n      swap1\n      pop\n      jump\t// out\n        /* \"#utility.yul\":1857:1956   */\n    tag_43:\n        /* \"#utility.yul\":1909:1915   */\n      0x00\n        /* \"#utility.yul\":1943:1948   */\n      dup2\n        /* \"#utility.yul\":1937:1949   */\n      mload\n        /* \"#utility.yul\":1927:1949   */\n      swap1\n      pop\n        /* \"#utility.yul\":1857:1956   */\n      swap2\n      swap1\n      pop\n      jump\t// out\n        /* \"#utility.yul\":1962:2131   */\n    tag_44:\n        /* \"#utility.yul\":2046:2057   */\n      0x00\n        /* \"#utility.yul\":2080:2086   */\n      dup3\n        /* \"#utility.yul\":2075:2078   */\n      dup3\n        /* \"#utility.yul\":2068:2087   */\n      mstore\n        /* \"#utility.yul\":2120:2124   */\n      0x20\n        /* \"#utility.yul\":2115:2118   */\n      dup3\n        /* \"#utility.yul\":2111:2125   */\n      add\n        /* \"#utility.yul\":2096:2125   */\n      swap1\n      pop\n        /* \"#utility.yul\":1962:2131   */\n      swap3\n      swap2\n      pop\n      pop\n      jump\t// out\n        /* \"#utility.yul\":2137:2383   */\n    tag_45:\n        /* \"#utility.yul\":2218:2219   */\n      0x00\n        /* \"#utility.yul\":2228:2341   */\n    tag_75:\n        /* \"#utility.yul\":2242:2248   */\n      dup4\n        /* \"#utility.yul\":2239:2240   */\n      dup2\n        /* \"#utility.yul\":2236:2249   */\n      lt\n        /* \"#utility.yul\":2228:2341   */\n      iszero\n      tag_77\n      jumpi\n        /* \"#utility.yul\":2327:2328   */\n      dup1\n        /* \"#utility.yul\":2322:2325   */\n      dup3\n        /* \"#utility.yul\":2318:2329   */\n      add\n        /* \"#utility.yul\":2312:2330   */\n      mload\n        /* \"#utility.yul\":2308:2309   */\n      dup2\n        /* \"#utility.yul\":2303:2306   */\n      dup5\n        /* \"#utility.yul\":2299:2310   */\n      add\n        /* \"#utility.yul\":2292:2331   */\n      mstore\n        /* \"#utility.yul\":2264:2266   */\n      0x20\n        /* \"#utility.yul\":2261:2262   */\n      dup2\n        /* \"#utility.yul\":2257:2267   */\n      add\n        /* \"#utility.yul\":2252:2267   */\n      swap1\n      pop\n        /* \"#utility.yul\":2228:2341   */\n      jump(tag_75)\n    tag_77:\n        /* \"#utility.yul\":2375:2376   */\n      0x00\n        /* \"#utility.yul\":2366:2372   */\n      dup5\n        /* \"#utility.yul\":2361:2364   */\n      dup5\n        /* \"#utility.yul\":2357:2373   */\n      add\n        /* \"#utility.yul\":2350:2377   */\n      mstore\n        /* \"#utility.yul\":2199:2383   */\n      pop\n        /* \"#utility.yul\":2137:2383   */\n      pop\n      pop\n      pop\n      jump\t// out\n        /* \"#utility.yul\":2389:2491   */\n    tag_46:\n        /* \"#utility.yul\":2430:2436   */\n      0x00\n        /* \"#utility.yul\":2481:2483   */\n      0x1f\n        /* \"#utility.yul\":2477:2484   */\n      not\n        /* \"#utility.yul\":2472:2474   */\n      0x1f\n        /* \"#utility.yul\":2465:2470   */\n      dup4\n        /* \"#utility.yul\":2461:2475   */\n      add\n        /* \"#utility.yul\":2457:2485   */\n      and\n        /* \"#utility.yul\":2447:2485   */\n      swap1\n      pop\n        /* \"#utility.yul\":2389:2491   */\n      swap2\n      swap1\n      pop\n      jump\t// out\n        /* \"#utility.yul\":2497:2874   */\n    tag_47:\n        /* \"#utility.yul\":2585:2588   */\n      0x00\n        /* \"#utility.yul\":2613:2652   */\n      tag_80\n        /* \"#utility.yul\":2646:2651   */\n      dup3\n        /* \"#utility.yul\":2613:2652   */\n      tag_43\n      jump\t// in\n    tag_80:\n        /* \"#utility.yul\":2668:2739   */\n      tag_81\n        /* \"#utility.yul\":2732:2738   */\n      dup2\n        /* \"#utility.yul\":2727:2730   */\n      dup6\n        /* \"#utility.yul\":2668:2739   */\n      tag_44\n      jump\t// in\n    tag_81:\n        /* \"#utility.yul\":2661:2739   */\n      swap4\n      pop\n        /* \"#utility.yul\":2748:2813   */\n      tag_82\n        /* \"#utility.yul\":2806:2812   */\n      dup2\n        /* \"#utility.yul\":2801:2804   */\n      dup6\n        /* \"#utility.yul\":2794:2798   */\n      0x20\n        /* \"#utility.yul\":2787:2792   */\n      dup7\n        /* \"#utility.yul\":2783:2799   */\n      add\n        /* \"#utility.yul\":2748:2813   */\n      tag_45\n      jump\t// in\n    tag_82:\n        /* \"#utility.yul\":2838:2867   */\n      tag_83\n        /* \"#utility.yul\":2860:2866   */\n      dup2\n        /* \"#utility.yul\":2838:2867   */\n      tag_46\n      jump\t// in\n    tag_83:\n        /* \"#utility.yul\":2833:2836   */\n      dup5\n        /* \"#utility.yul\":2829:2868   */\n      add\n        /* \"#utility.yul\":2822:2868   */\n      swap2\n      pop\n        /* \"#utility.yul\":2589:2874   */\n      pop\n        /* \"#utility.yul\":2497:2874   */\n      swap3\n      swap2\n      pop\n      pop\n      jump\t// out\n        /* \"#utility.yul\":2880:3193   */\n    tag_21:\n        /* \"#utility.yul\":2993:2997   */\n      0x00\n        /* \"#utility.yul\":3031:3033   */\n      0x20\n        /* \"#utility.yul\":3020:3029   */\n      dup3\n        /* \"#utility.yul\":3016:3034   */\n      add\n        /* \"#utility.yul\":3008:3034   */\n      swap1\n      pop\n        /* \"#utility.yul\":3080:3089   */\n      dup2\n        /* \"#utility.yul\":3074:3078   */\n      dup2\n        /* \"#utility.yul\":3070:3090   */\n      sub\n        /* \"#utility.yul\":3066:3067   */\n      0x00\n        /* \"#utility.yul\":3055:3064   */\n      dup4\n        /* \"#utility.yul\":3051:3068   */\n      add\n        /* \"#utility.yul\":3044:3091   */\n      mstore\n        /* \"#utility.yul\":3108:3186   */\n      tag_85\n        /* \"#utility.yul\":3181:3185   */\n      dup2\n        /* \"#utility.yul\":3172:3178   */\n      dup5\n        /* \"#utility.yul\":3108:3186   */\n      tag_47\n      jump\t// in\n    tag_85:\n        /* \"#utility.yul\":3100:3186   */\n      swap1\n      pop\n        /* \"#utility.yul\":2880:3193   */\n      swap3\n      swap2\n      pop\n      pop\n      jump\t// out\n        /* \"#utility.yul\":3199:3379   */\n    tag_48:\n        /* \"#utility.yul\":3247:3324   */\n      0x4e487b7100000000000000000000000000000000000000000000000000000000\n        /* \"#utility.yul\":3244:3245   */\n      0x00\n        /* \"#utility.yul\":3237:3325   */\n      mstore\n        /* \"#utility.yul\":3344:3348   */\n      0x11\n        /* \"#utility.yul\":3341:3342   */\n      0x04\n        /* \"#utility.yul\":3334:3349   */\n      mstore\n        /* \"#utility.yul\":3368:3372   */\n      0x24\n        /* \"#utility.yul\":3365:3366   */\n      0x00\n        /* \"#utility.yul\":3358:3373   */\n      revert\n        /* \"#utility.yul\":3385:3576   */\n    tag_27:\n        /* \"#utility.yul\":3425:3428   */\n      0x00\n        /* \"#utility.yul\":3444:3464   */\n      tag_88\n        /* \"#utility.yul\":3462:3463   */\n      dup3\n        /* \"#utility.yul\":3444:3464   */\n      tag_39\n      jump\t// in\n    tag_88:\n        /* \"#utility.yul\":3439:3464   */\n      swap2\n      pop\n        /* \"#utility.yul\":3478:3498   */\n      tag_89\n        /* \"#utility.yul\":3496:3497   */\n      dup4\n        /* \"#utility.yul\":3478:3498   */\n      tag_39\n      jump\t// in\n    tag_89:\n        /* \"#utility.yul\":3473:3498   */\n      swap3\n      pop\n        /* \"#utility.yul\":3521:3522   */\n      dup3\n        /* \"#utility.yul\":3518:3519   */\n      dup3\n        /* \"#utility.yul\":3514:3523   */\n      add\n        /* \"#utility.yul\":3507:3523   */\n      swap1\n      pop\n        /* \"#utility.yul\":3542:3545   */\n      dup1\n        /* \"#utility.yul\":3539:3540   */\n      dup3\n        /* \"#utility.yul\":3536:3546   */\n      gt\n        /* \"#utility.yul\":3533:3569   */\n      iszero\n      tag_90\n      jumpi\n        /* \"#utility.yul\":3549:3567   */\n      tag_91\n      tag_48\n      jump\t// in\n    tag_91:\n        /* \"#utility.yul\":3533:3569   */\n    tag_90:\n        /* \"#utility.yul\":3385:3576   */\n      swap3\n      swap2\n      pop\n      pop\n      jump\t// out\n        /* \"#utility.yul\":3582:3815   */\n    tag_29:\n        /* \"#utility.yul\":3621:3624   */\n      0x00\n        /* \"#utility.yul\":3644:3668   */\n      tag_93\n        /* \"#utility.yul\":3662:3667   */\n      dup3\n        /* \"#utility.yul\":3644:3668   */\n      tag_39\n      jump\t// in\n    tag_93:\n        /* \"#utility.yul\":3635:3668   */\n      swap2\n      pop\n        /* \"#utility.yul\":3690:3756   */\n      0xffffffffffffffffffffffffffffffffffffffffffffffffffffffffffffffff\n        /* \"#utility.yul\":3683:3688   */\n      dup3\n        /* \"#utility.yul\":3680:3757   */\n      sub\n        /* \"#utility.yul\":3677:3780   */\n      tag_94\n      jumpi\n        /* \"#utility.yul\":3760:3778   */\n      tag_95\n      tag_48\n      jump\t// in\n    tag_95:\n        /* \"#utility.yul\":3677:3780   */\n    tag_94:\n        /* \"#utility.yul\":3807:3808   */\n      0x01\n        /* \"#utility.yul\":3800:3805   */\n      dup3\n        /* \"#utility.yul\":3796:3809   */\n      add\n        /* \"#utility.yul\":3789:3809   */\n      swap1\n      pop\n        /* \"#utility.yul\":3582:3815   */\n      swap2\n      swap1\n      pop\n      jump\t// out\n\n    auxdata: 0xa2646970667358221220fd20c2adf6892e5b38cfb05c9fa64594b1274afb76194f8723f4c931161a475a64736f6c63430008180033\n}\n",
				"bytecode": {
					"linkReferences": {},
					"object": "608060405234801561000f575f80fd5b506103f98061001d5f395ff3fe608060405234801561000f575f80fd5b506004361061003f575f3560e01c80631f0ce91714610043578063bf1ca5bd14610073578063c7e35dbe146100a3575b5f80fd5b61005d600480360381019061005891906101e1565b6100d3565b60405161006a919061021b565b60405180910390f35b61008d60048036038101906100889190610234565b610107565b60405161009a919061021b565b60405180910390f35b6100bd60048036038101906100b89190610234565b610124565b6040516100ca91906102fc565b60405180910390f35b5f805f90505b8281116101015780826100ec9190610349565b915080806100f99061037c565b9150506100d9565b50919050565b5f808284116101165782610118565b835b90508091505092915050565b60608183111561016b576040518060400160405280600581526020017f61203e206200000000000000000000000000000000000000000000000000000081525090506101a4565b6040518060400160405280600581526020017f61203c206200000000000000000000000000000000000000000000000000000081525090505b92915050565b5f80fd5b5f819050919050565b6101c0816101ae565b81146101ca575f80fd5b50565b5f813590506101db816101b7565b92915050565b5f602082840312156101f6576101f56101aa565b5b5f610203848285016101cd565b91505092915050565b610215816101ae565b82525050565b5f60208201905061022e5f83018461020c565b92915050565b5f806040838503121561024a576102496101aa565b5b5f610257858286016101cd565b9250506020610268858286016101cd565b9150509250929050565b5f81519050919050565b5f82825260208201905092915050565b5f5b838110156102a957808201518184015260208101905061028e565b5f8484015250505050565b5f601f19601f8301169050919050565b5f6102ce82610272565b6102d8818561027c565b93506102e881856020860161028c565b6102f1816102b4565b840191505092915050565b5f6020820190508181035f83015261031481846102c4565b905092915050565b7f4e487b71000000000000000000000000000000000000000000000000000000005f52601160045260245ffd5b5f610353826101ae565b915061035e836101ae565b92508282019050808211156103765761037561031c565b5b92915050565b5f610386826101ae565b91507fffffffffffffffffffffffffffffffffffffffffffffffffffffffffffffffff82036103b8576103b761031c565b5b60018201905091905056fea2646970667358221220fd20c2adf6892e5b38cfb05c9fa64594b1274afb76194f8723f4c931161a475a64736f6c63430008180033",
					"opcodes": "PUSH1 0x80 PUSH1 0x40 MSTORE CALLVALUE DUP1 ISZERO PUSH2 0xF JUMPI PUSH0 DUP1 REVERT JUMPDEST POP PUSH2 0x3F9 DUP1 PUSH2 0x1D PUSH0 CODECOPY PUSH0 RETURN INVALID PUSH1 0x80 PUSH1 0x40 MSTORE CALLVALUE DUP1 ISZERO PUSH2 0xF JUMPI PUSH0 DUP1 REVERT JUMPDEST POP PUSH1 0x4 CALLDATASIZE LT PUSH2 0x3F JUMPI PUSH0 CALLDATALOAD PUSH1 0xE0 SHR DUP1 PUSH4 0x1F0CE917 EQ PUSH2 0x43 JUMPI DUP1 PUSH4 0xBF1CA5BD EQ PUSH2 0x73 JUMPI DUP1 PUSH4 0xC7E35DBE EQ PUSH2 0xA3 JUMPI JUMPDEST PUSH0 DUP1 REVERT JUMPDEST PUSH2 0x5D PUSH1 0x4 DUP1 CALLDATASIZE SUB DUP2 ADD SWAP1 PUSH2 0x58 SWAP2 SWAP1 PUSH2 0x1E1 JUMP JUMPDEST PUSH2 0xD3 JUMP JUMPDEST PUSH1 0x40 MLOAD PUSH2 0x6A SWAP2 SWAP1 PUSH2 0x21B JUMP JUMPDEST PUSH1 0x40 MLOAD DUP1 SWAP2 SUB SWAP1 RETURN JUMPDEST PUSH2 0x8D PUSH1 0x4 DUP1 CALLDATASIZE SUB DUP2 ADD SWAP1 PUSH2 0x88 SWAP2 SWAP1 PUSH2 0x234 JUMP JUMPDEST PUSH2 0x107 JUMP JUMPDEST PUSH1 0x40 MLOAD PUSH2 0x9A SWAP2 SWAP1 PUSH2 0x21B JUMP JUMPDEST PUSH1 0x40 MLOAD DUP1 SWAP2 SUB SWAP1 RETURN JUMPDEST PUSH2 0xBD PUSH1 0x4 DUP1 CALLDATASIZE SUB DUP2 ADD SWAP1 PUSH2 0xB8 SWAP2 SWAP1 PUSH2 0x234 JUMP JUMPDEST PUSH2 0x124 JUMP JUMPDEST PUSH1 0x40 MLOAD PUSH2 0xCA SWAP2 SWAP1 PUSH2 0x2FC JUMP JUMPDEST PUSH1 0x40 MLOAD DUP1 SWAP2 SUB SWAP1 RETURN JUMPDEST PUSH0 DUP1 PUSH0 SWAP1 POP JUMPDEST DUP3 DUP2 GT PUSH2 0x101 JUMPI DUP1 DUP3 PUSH2 0xEC SWAP2 SWAP1 PUSH2 0x349 JUMP JUMPDEST SWAP2 POP DUP1 DUP1 PUSH2 0xF9 SWAP1 PUSH2 0x37C JUMP JUMPDEST SWAP2 POP POP PUSH2 0xD9 JUMP JUMPDEST POP SWAP2 SWAP1 POP JUMP JUMPDEST PUSH0 DUP1 DUP3 DUP5 GT PUSH2 0x116 JUMPI DUP3 PUSH2 0x118 JUMP JUMPDEST DUP4 JUMPDEST SWAP1 POP DUP1 SWAP2 POP POP SWAP3 SWAP2 POP POP JUMP JUMPDEST PUSH1 0x60 DUP2 DUP4 GT ISZERO PUSH2 0x16B JUMPI PUSH1 0x40 MLOAD DUP1 PUSH1 0x40 ADD PUSH1 0x40 MSTORE DUP1 PUSH1 0x5 DUP2 MSTORE PUSH1 0x20 ADD PUSH32 0x61203E2062000000000000000000000000000000000000000000000000000000 DUP2 MSTORE POP SWAP1 POP PUSH2 0x1A4 JUMP JUMPDEST PUSH1 0x40 MLOAD DUP1 PUSH1 0x40 ADD PUSH1 0x40 MSTORE DUP1 PUSH1 0x5 DUP2 MSTORE PUSH1 0x20 ADD PUSH32 0x61203C2062000000000000000000000000000000000000000000000000000000 DUP2 MSTORE POP SWAP1 POP JUMPDEST SWAP3 SWAP2 POP POP JUMP JUMPDEST PUSH0 DUP1 REVERT JUMPDEST PUSH0 DUP2 SWAP1 POP SWAP2 SWAP1 POP JUMP JUMPDEST PUSH2 0x1C0 DUP2 PUSH2 0x1AE JUMP JUMPDEST DUP2 EQ PUSH2 0x1CA JUMPI PUSH0 DUP1 REVERT JUMPDEST POP JUMP JUMPDEST PUSH0 DUP2 CALLDATALOAD SWAP1 POP PUSH2 0x1DB DUP2 PUSH2 0x1B7 JUMP JUMPDEST SWAP3 SWAP2 POP POP JUMP JUMPDEST PUSH0 PUSH1 0x20 DUP3 DUP5 SUB SLT ISZERO PUSH2 0x1F6 JUMPI PUSH2 0x1F5 PUSH2 0x1AA JUMP JUMPDEST JUMPDEST PUSH0 PUSH2 0x203 DUP5 DUP3 DUP6 ADD PUSH2 0x1CD JUMP JUMPDEST SWAP2 POP POP SWAP3 SWAP2 POP POP JUMP JUMPDEST PUSH2 0x215 DUP2 PUSH2 0x1AE JUMP JUMPDEST DUP3 MSTORE POP POP JUMP JUMPDEST PUSH0 PUSH1 0x20 DUP3 ADD SWAP1 POP PUSH2 0x22E PUSH0 DUP4 ADD DUP5 PUSH2 0x20C JUMP JUMPDEST SWAP3 SWAP2 POP POP JUMP JUMPDEST PUSH0 DUP1 PUSH1 0x40 DUP4 DUP6 SUB SLT ISZERO PUSH2 0x24A JUMPI PUSH2 0x249 PUSH2 0x1AA JUMP JUMPDEST JUMPDEST PUSH0 PUSH2 0x257 DUP6 DUP3 DUP7 ADD PUSH2 0x1CD JUMP JUMPDEST SWAP3 POP POP PUSH1 0x20 PUSH2 0x268 DUP6 DUP3 DUP7 ADD PUSH2 0x1CD JUMP JUMPDEST SWAP2 POP POP SWAP3 POP SWAP3 SWAP1 POP JUMP JUMPDEST PUSH0 DUP2 MLOAD SWAP1 POP SWAP2 SWAP1 POP JUMP JUMPDEST PUSH0 DUP3 DUP3 MSTORE PUSH1 0x20 DUP3 ADD SWAP1 POP SWAP3 SWAP2 POP POP JUMP JUMPDEST PUSH0 JUMPDEST DUP4 DUP2 LT ISZERO PUSH2 0x2A9 JUMPI DUP1 DUP3 ADD MLOAD DUP2 DUP5 ADD MSTORE PUSH1 0x20 DUP2 ADD SWAP1 POP PUSH2 0x28E JUMP JUMPDEST PUSH0 DUP5 DUP5 ADD MSTORE POP POP POP POP JUMP JUMPDEST PUSH0 PUSH1 0x1F NOT PUSH1 0x1F DUP4 ADD AND SWAP1 POP SWAP2 SWAP1 POP JUMP JUMPDEST PUSH0 PUSH2 0x2CE DUP3 PUSH2 0x272 JUMP JUMPDEST PUSH2 0x2D8 DUP2 DUP6 PUSH2 0x27C JUMP JUMPDEST SWAP4 POP PUSH2 0x2E8 DUP2 DUP6 PUSH1 0x20 DUP7 ADD PUSH2 0x28C JUMP JUMPDEST PUSH2 0x2F1 DUP2 PUSH2 0x2B4 JUMP JUMPDEST DUP5 ADD SWAP2 POP POP SWAP3 SWAP2 POP POP JUMP JUMPDEST PUSH0 PUSH1 0x20 DUP3 ADD SWAP1 POP DUP2 DUP2 SUB PUSH0 DUP4 ADD MSTORE PUSH2 0x314 DUP2 DUP5 PUSH2 0x2C4 JUMP JUMPDEST SWAP1 POP SWAP3 SWAP2 POP POP JUMP JUMPDEST PUSH32 0x4E487B7100000000000000000000000000000000000000000000000000000000 PUSH0 MSTORE PUSH1 0x11 PUSH1 0x4 MSTORE PUSH1 0x24 PUSH0 REVERT JUMPDEST PUSH0 PUSH2 0x353 DUP3 PUSH2 0x1AE JUMP JUMPDEST SWAP2 POP PUSH2 0x35E DUP4 PUSH2 0x1AE JUMP JUMPDEST SWAP3 POP DUP3 DUP3 ADD SWAP1 POP DUP1 DUP3 GT ISZERO PUSH2 0x376 JUMPI PUSH2 0x375 PUSH2 0x31C JUMP JUMPDEST JUMPDEST SWAP3 SWAP2 POP POP JUMP JUMPDEST PUSH0 PUSH2 0x386 DUP3 PUSH2 0x1AE JUMP JUMPDEST SWAP2 POP PUSH32 0xFFFFFFFFFFFFFFFFFFFFFFFFFFFFFFFFFFFFFFFFFFFFFFFFFFFFFFFFFFFFFFFF DUP3 SUB PUSH2 0x3B8 JUMPI PUSH2 0x3B7 PUSH2 0x31C JUMP JUMPDEST JUMPDEST PUSH1 0x1 DUP3 ADD SWAP1 POP SWAP2 SWAP1 POP JUMP INVALID LOG2 PUSH5 0x6970667358 0x22 SLT KECCAK256 REVERT KECCAK256 0xC2 0xAD 0xF6 DUP10 0x2E JUMPDEST CODESIZE 0xCF 0xB0 TLOAD SWAP16 0xA6 GASLIMIT SWAP5 0xB1 0x27 BLOBBASEFEE 0xFB PUSH23 0x194F8723F4C931161A475A64736F6C6343000818003300 "
				},
				"gasEstimates": {
					"creation": {
						"codeDepositCost": "203400",
						"executionCost": "243",
						"totalCost": "203643"
					},
					"external": {
						"testIfElse(uint256,uint256)": "infinite",
						"testLoop(uint256)": "infinite",
						"testTernaryOperator(uint256,uint256)": "infinite"
					}
				},
				"methodIdentifiers": {
					"testIfElse(uint256,uint256)": "c7e35dbe",
					"testLoop(uint256)": "1f0ce917",
					"testTernaryOperator(uint256,uint256)": "bf1ca5bd"
				}
			},
			"storageLayout": {
				"storage": [],
				"types": null
			},
			"userdoc": {
				"kind": "user",
				"methods": {},
				"version": 1
			}
		}
	}
}