{
	"contracts/BaiTapLon.sol": {
		"Financial_Operations": {
			"abi": [
				{
					"inputs": [],
					"name": "Balance",
					"outputs": [
						{
							"internalType": "uint256",
							"name": "",
							"type": "uint256"
						}
					],
					"stateMutability": "view",
					"type": "function"
				},
				{
					"inputs": [
						{
							"internalType": "address",
							"name": "user",
							"type": "address"
						},
						{
							"internalType": "uint256",
							"name": "roles",
							"type": "uint256"
						}
					],
					"name": "addRoles",
					"outputs": [],
					"stateMutability": "nonpayable",
					"type": "function"
				},
				{
					"inputs": [],
					"name": "checkLoan",
					"outputs": [
						{
							"internalType": "uint256",
							"name": "",
							"type": "uint256"
						}
					],
					"stateMutability": "view",
					"type": "function"
				},
				{
					"inputs": [
						{
							"internalType": "address",
							"name": "_user",
							"type": "address"
						}
					],
					"name": "checking_roles",
					"outputs": [
						{
							"internalType": "string",
							"name": "",
							"type": "string"
						}
					],
					"stateMutability": "view",
					"type": "function"
				},
				{
					"inputs": [
						{
							"internalType": "uint256",
							"name": "value",
							"type": "uint256"
						}
					],
					"name": "deposit",
					"outputs": [],
					"stateMutability": "nonpayable",
					"type": "function"
				},
				{
					"inputs": [
						{
							"internalType": "uint256",
							"name": "value",
							"type": "uint256"
						},
						{
							"internalType": "uint256",
							"name": "month",
							"type": "uint256"
						}
					],
					"name": "systemLoan",
					"outputs": [],
					"stateMutability": "nonpayable",
					"type": "function"
				},
				{
					"inputs": [
						{
							"internalType": "uint256",
							"name": "value",
							"type": "uint256"
						}
					],
					"name": "withDraw",
					"outputs": [],
					"stateMutability": "nonpayable",
					"type": "function"
				}
			],
			"devdoc": {
				"kind": "dev",
				"methods": {},
				"version": 1
			},
			"evm": {
				"assembly": "    /* \"contracts/BaiTapLon.sol\":1861:2658  contract Financial_Operations is UserManager(msg.sender), Bank {... */\n  mstore(0x40, 0x80)\n  callvalue\n  dup1\n  iszero\n  tag_1\n  jumpi\n  0x00\n  dup1\n  revert\ntag_1:\n  pop\n    /* \"contracts/BaiTapLon.sol\":1906:1916  msg.sender */\n  caller\n    /* \"contracts/BaiTapLon.sol\":205:210  admin */\n  dup1\n    /* \"contracts/BaiTapLon.sol\":190:202  Adminstrator */\n  0x00\n  dup1\n    /* \"contracts/BaiTapLon.sol\":190:210  Adminstrator = admin */\n  0x0100\n  exp\n  dup2\n  sload\n  dup2\n  0xffffffffffffffffffffffffffffffffffffffff\n  mul\n  not\n  and\n  swap1\n  dup4\n  0xffffffffffffffffffffffffffffffffffffffff\n  and\n  mul\n  or\n  swap1\n  sstore\n  pop\n    /* \"contracts/BaiTapLon.sol\":240:241  1 */\n  0x01\n    /* \"contracts/BaiTapLon.sol\":221:230  UserRoles */\n  0x02\n    /* \"contracts/BaiTapLon.sol\":221:237  UserRoles[admin] */\n  0x00\n    /* \"contracts/BaiTapLon.sol\":231:236  admin */\n  dup4\n    /* \"contracts/BaiTapLon.sol\":221:237  UserRoles[admin] */\n  0xffffffffffffffffffffffffffffffffffffffff\n  and\n  0xffffffffffffffffffffffffffffffffffffffff\n  and\n  dup2\n  mstore\n  0x20\n  add\n  swap1\n  dup2\n  mstore\n  0x20\n  add\n  0x00\n  keccak256\n    /* \"contracts/BaiTapLon.sol\":221:241  UserRoles[admin] = 1 */\n  dup2\n  swap1\n  sstore\n  pop\n    /* \"contracts/BaiTapLon.sol\":152:249  constructor(address admin) {... */\n  pop\n    /* \"contracts/BaiTapLon.sol\":1861:2658  contract Financial_Operations is UserManager(msg.sender), Bank {... */\n  dataSize(sub_0)\n  dup1\n  dataOffset(sub_0)\n  0x00\n  codecopy\n  0x00\n  return\nstop\n\nsub_0: assembly {\n        /* \"contracts/BaiTapLon.sol\":1861:2658  contract Financial_Operations is UserManager(msg.sender), Bank {... */\n      mstore(0x40, 0x80)\n      callvalue\n      dup1\n      iszero\n      tag_1\n      jumpi\n      0x00\n      dup1\n      revert\n    tag_1:\n      pop\n      jumpi(tag_2, lt(calldatasize, 0x04))\n      shr(0xe0, calldataload(0x00))\n      dup1\n      0x2dcaf1cf\n      gt\n      tag_10\n      jumpi\n      dup1\n      0x2dcaf1cf\n      eq\n      tag_6\n      jumpi\n      dup1\n      0x496fb803\n      eq\n      tag_7\n      jumpi\n      dup1\n      0x6369ec9b\n      eq\n      tag_8\n      jumpi\n      dup1\n      0xb6b55f25\n      eq\n      tag_9\n      jumpi\n      jump(tag_2)\n    tag_10:\n      dup1\n      0x0ef67887\n      eq\n      tag_3\n      jumpi\n      dup1\n      0x14174f33\n      eq\n      tag_4\n      jumpi\n      dup1\n      0x285addad\n      eq\n      tag_5\n      jumpi\n    tag_2:\n      0x00\n      dup1\n      revert\n        /* \"contracts/BaiTapLon.sol\":1933:2023  function Balance() public view returns(uint){... */\n    tag_3:\n      tag_11\n      tag_12\n      jump\t// in\n    tag_11:\n      mload(0x40)\n      tag_13\n      swap2\n      swap1\n      tag_14\n      jump\t// in\n    tag_13:\n      mload(0x40)\n      dup1\n      swap2\n      sub\n      swap1\n      return\n        /* \"contracts/BaiTapLon.sol\":2302:2449  function withDraw(uint value) public checkValue(value) {... */\n    tag_4:\n      tag_15\n      0x04\n      dup1\n      calldatasize\n      sub\n      dup2\n      add\n      swap1\n      tag_16\n      swap2\n      swap1\n      tag_17\n      jump\t// in\n    tag_16:\n      tag_18\n      jump\t// in\n    tag_15:\n      stop\n        /* \"contracts/BaiTapLon.sol\":2457:2550  function systemLoan(uint value, uint month) public {... */\n    tag_5:\n      tag_19\n      0x04\n      dup1\n      calldatasize\n      sub\n      dup2\n      add\n      swap1\n      tag_20\n      swap2\n      swap1\n      tag_21\n      jump\t// in\n    tag_20:\n      tag_22\n      jump\t// in\n    tag_19:\n      stop\n        /* \"contracts/BaiTapLon.sol\":2031:2149  function addRoles(address user, uint roles) public checkAdmin {... */\n    tag_6:\n      tag_23\n      0x04\n      dup1\n      calldatasize\n      sub\n      dup2\n      add\n      swap1\n      tag_24\n      swap2\n      swap1\n      tag_25\n      jump\t// in\n    tag_24:\n      tag_26\n      jump\t// in\n    tag_23:\n      stop\n        /* \"contracts/BaiTapLon.sol\":2558:2647  function checkLoan() public view returns(uint){... */\n    tag_7:\n      tag_27\n      tag_28\n      jump\t// in\n    tag_27:\n      mload(0x40)\n      tag_29\n      swap2\n      swap1\n      tag_14\n      jump\t// in\n    tag_29:\n      mload(0x40)\n      dup1\n      swap2\n      sub\n      swap1\n      return\n        /* \"contracts/BaiTapLon.sol\":850:1209  function checking_roles(address _user) public view returns(string memory) {... */\n    tag_8:\n      tag_30\n      0x04\n      dup1\n      calldatasize\n      sub\n      dup2\n      add\n      swap1\n      tag_31\n      swap2\n      swap1\n      tag_32\n      jump\t// in\n    tag_31:\n      tag_33\n      jump\t// in\n    tag_30:\n      mload(0x40)\n      tag_34\n      swap2\n      swap1\n      tag_35\n      jump\t// in\n    tag_34:\n      mload(0x40)\n      dup1\n      swap2\n      sub\n      swap1\n      return\n        /* \"contracts/BaiTapLon.sol\":2158:2294  function deposit(uint value) public {... */\n    tag_9:\n      tag_36\n      0x04\n      dup1\n      calldatasize\n      sub\n      dup2\n      add\n      swap1\n      tag_37\n      swap2\n      swap1\n      tag_17\n      jump\t// in\n    tag_37:\n      tag_38\n      jump\t// in\n    tag_36:\n      stop\n        /* \"contracts/BaiTapLon.sol\":1933:2023  function Balance() public view returns(uint){... */\n    tag_12:\n        /* \"contracts/BaiTapLon.sol\":1972:1976  uint */\n      0x00\n        /* \"contracts/BaiTapLon.sol\":1995:2003  Balances */\n      0x04\n        /* \"contracts/BaiTapLon.sol\":1995:2015  Balances[msg.sender] */\n      0x00\n        /* \"contracts/BaiTapLon.sol\":2004:2014  msg.sender */\n      caller\n        /* \"contracts/BaiTapLon.sol\":1995:2015  Balances[msg.sender] */\n      0xffffffffffffffffffffffffffffffffffffffff\n      and\n      0xffffffffffffffffffffffffffffffffffffffff\n      and\n      dup2\n      mstore\n      0x20\n      add\n      swap1\n      dup2\n      mstore\n      0x20\n      add\n      0x00\n      keccak256\n      sload\n        /* \"contracts/BaiTapLon.sol\":1988:2015  return Balances[msg.sender] */\n      swap1\n      pop\n        /* \"contracts/BaiTapLon.sol\":1933:2023  function Balance() public view returns(uint){... */\n      swap1\n      jump\t// out\n        /* \"contracts/BaiTapLon.sol\":2302:2449  function withDraw(uint value) public checkValue(value) {... */\n    tag_18:\n        /* \"contracts/BaiTapLon.sol\":2350:2355  value */\n      dup1\n        /* \"contracts/BaiTapLon.sol\":1383:1395  Balance_Bank */\n      0x03\n        /* \"contracts/BaiTapLon.sol\":1383:1407  Balance_Bank[msg.sender] */\n      0x00\n        /* \"contracts/BaiTapLon.sol\":1396:1406  msg.sender */\n      caller\n        /* \"contracts/BaiTapLon.sol\":1383:1407  Balance_Bank[msg.sender] */\n      0xffffffffffffffffffffffffffffffffffffffff\n      and\n      0xffffffffffffffffffffffffffffffffffffffff\n      and\n      dup2\n      mstore\n      0x20\n      add\n      swap1\n      dup2\n      mstore\n      0x20\n      add\n      0x00\n      keccak256\n      sload\n        /* \"contracts/BaiTapLon.sol\":1374:1379  value */\n      dup2\n        /* \"contracts/BaiTapLon.sol\":1374:1407  value <= Balance_Bank[msg.sender] */\n      gt\n      iszero\n        /* \"contracts/BaiTapLon.sol\":1366:1433  require(value <= Balance_Bank[msg.sender], \"You not enough money!\") */\n      tag_41\n      jumpi\n      mload(0x40)\n      0x08c379a000000000000000000000000000000000000000000000000000000000\n      dup2\n      mstore\n      0x04\n      add\n      tag_42\n      swap1\n      tag_43\n      jump\t// in\n    tag_42:\n      mload(0x40)\n      dup1\n      swap2\n      sub\n      swap1\n      revert\n    tag_41:\n        /* \"contracts/BaiTapLon.sol\":2396:2401  value */\n      dup2\n        /* \"contracts/BaiTapLon.sol\":2368:2380  Balance_Bank */\n      0x03\n        /* \"contracts/BaiTapLon.sol\":2368:2392  Balance_Bank[msg.sender] */\n      0x00\n        /* \"contracts/BaiTapLon.sol\":2381:2391  msg.sender */\n      caller\n        /* \"contracts/BaiTapLon.sol\":2368:2392  Balance_Bank[msg.sender] */\n      0xffffffffffffffffffffffffffffffffffffffff\n      and\n      0xffffffffffffffffffffffffffffffffffffffff\n      and\n      dup2\n      mstore\n      0x20\n      add\n      swap1\n      dup2\n      mstore\n      0x20\n      add\n      0x00\n      keccak256\n      0x00\n        /* \"contracts/BaiTapLon.sol\":2368:2401  Balance_Bank[msg.sender] -= value */\n      dup3\n      dup3\n      sload\n      tag_45\n      swap2\n      swap1\n      tag_46\n      jump\t// in\n    tag_45:\n      swap3\n      pop\n      pop\n      dup2\n      swap1\n      sstore\n      pop\n        /* \"contracts/BaiTapLon.sol\":2436:2441  value */\n      dup2\n        /* \"contracts/BaiTapLon.sol\":2412:2420  Balances */\n      0x04\n        /* \"contracts/BaiTapLon.sol\":2412:2432  Balances[msg.sender] */\n      0x00\n        /* \"contracts/BaiTapLon.sol\":2421:2431  msg.sender */\n      caller\n        /* \"contracts/BaiTapLon.sol\":2412:2432  Balances[msg.sender] */\n      0xffffffffffffffffffffffffffffffffffffffff\n      and\n      0xffffffffffffffffffffffffffffffffffffffff\n      and\n      dup2\n      mstore\n      0x20\n      add\n      swap1\n      dup2\n      mstore\n      0x20\n      add\n      0x00\n      keccak256\n      0x00\n        /* \"contracts/BaiTapLon.sol\":2412:2441  Balances[msg.sender] += value */\n      dup3\n      dup3\n      sload\n      tag_47\n      swap2\n      swap1\n      tag_48\n      jump\t// in\n    tag_47:\n      swap3\n      pop\n      pop\n      dup2\n      swap1\n      sstore\n      pop\n        /* \"contracts/BaiTapLon.sol\":2302:2449  function withDraw(uint value) public checkValue(value) {... */\n      pop\n      pop\n      jump\t// out\n        /* \"contracts/BaiTapLon.sol\":2457:2550  function systemLoan(uint value, uint month) public {... */\n    tag_22:\n        /* \"contracts/BaiTapLon.sol\":2519:2542  Bank.loan(value, month) */\n      tag_50\n        /* \"contracts/BaiTapLon.sol\":2529:2534  value */\n      dup3\n        /* \"contracts/BaiTapLon.sol\":2536:2541  month */\n      dup3\n        /* \"contracts/BaiTapLon.sol\":2519:2528  Bank.loan */\n      tag_51\n        /* \"contracts/BaiTapLon.sol\":2519:2542  Bank.loan(value, month) */\n      jump\t// in\n    tag_50:\n        /* \"contracts/BaiTapLon.sol\":2457:2550  function systemLoan(uint value, uint month) public {... */\n      pop\n      pop\n      jump\t// out\n        /* \"contracts/BaiTapLon.sol\":2031:2149  function addRoles(address user, uint roles) public checkAdmin {... */\n    tag_26:\n        /* \"contracts/BaiTapLon.sol\":347:359  Adminstrator */\n      0x00\n      dup1\n      sload\n      swap1\n      0x0100\n      exp\n      swap1\n      div\n      0xffffffffffffffffffffffffffffffffffffffff\n      and\n        /* \"contracts/BaiTapLon.sol\":335:359  msg.sender==Adminstrator */\n      0xffffffffffffffffffffffffffffffffffffffff\n      and\n        /* \"contracts/BaiTapLon.sol\":335:345  msg.sender */\n      caller\n        /* \"contracts/BaiTapLon.sol\":335:359  msg.sender==Adminstrator */\n      0xffffffffffffffffffffffffffffffffffffffff\n      and\n      eq\n        /* \"contracts/BaiTapLon.sol\":327:382  require(msg.sender==Adminstrator, \"You can not solve!\") */\n      tag_53\n      jumpi\n      mload(0x40)\n      0x08c379a000000000000000000000000000000000000000000000000000000000\n      dup2\n      mstore\n      0x04\n      add\n      tag_54\n      swap1\n      tag_55\n      jump\t// in\n    tag_54:\n      mload(0x40)\n      dup1\n      swap2\n      sub\n      swap1\n      revert\n    tag_53:\n        /* \"contracts/BaiTapLon.sol\":2104:2141  UserManager.adding_roles(user, roles) */\n      tag_57\n        /* \"contracts/BaiTapLon.sol\":2129:2133  user */\n      dup3\n        /* \"contracts/BaiTapLon.sol\":2135:2140  roles */\n      dup3\n        /* \"contracts/BaiTapLon.sol\":2104:2128  UserManager.adding_roles */\n      tag_58\n        /* \"contracts/BaiTapLon.sol\":2104:2141  UserManager.adding_roles(user, roles) */\n      jump\t// in\n    tag_57:\n        /* \"contracts/BaiTapLon.sol\":2031:2149  function addRoles(address user, uint roles) public checkAdmin {... */\n      pop\n      pop\n      jump\t// out\n        /* \"contracts/BaiTapLon.sol\":2558:2647  function checkLoan() public view returns(uint){... */\n    tag_28:\n        /* \"contracts/BaiTapLon.sol\":2599:2603  uint */\n      0x00\n        /* \"contracts/BaiTapLon.sol\":2622:2627  loans */\n      0x05\n        /* \"contracts/BaiTapLon.sol\":2622:2639  loans[msg.sender] */\n      0x00\n        /* \"contracts/BaiTapLon.sol\":2628:2638  msg.sender */\n      caller\n        /* \"contracts/BaiTapLon.sol\":2622:2639  loans[msg.sender] */\n      0xffffffffffffffffffffffffffffffffffffffff\n      and\n      0xffffffffffffffffffffffffffffffffffffffff\n      and\n      dup2\n      mstore\n      0x20\n      add\n      swap1\n      dup2\n      mstore\n      0x20\n      add\n      0x00\n      keccak256\n      sload\n        /* \"contracts/BaiTapLon.sol\":2615:2639  return loans[msg.sender] */\n      swap1\n      pop\n        /* \"contracts/BaiTapLon.sol\":2558:2647  function checkLoan() public view returns(uint){... */\n      swap1\n      jump\t// out\n        /* \"contracts/BaiTapLon.sol\":850:1209  function checking_roles(address _user) public view returns(string memory) {... */\n    tag_33:\n        /* \"contracts/BaiTapLon.sol\":909:922  string memory */\n      0x60\n        /* \"contracts/BaiTapLon.sol\":956:957  1 */\n      0x01\n        /* \"contracts/BaiTapLon.sol\":938:947  UserRoles */\n      0x02\n        /* \"contracts/BaiTapLon.sol\":938:954  UserRoles[_user] */\n      0x00\n        /* \"contracts/BaiTapLon.sol\":948:953  _user */\n      dup5\n        /* \"contracts/BaiTapLon.sol\":938:954  UserRoles[_user] */\n      0xffffffffffffffffffffffffffffffffffffffff\n      and\n      0xffffffffffffffffffffffffffffffffffffffff\n      and\n      dup2\n      mstore\n      0x20\n      add\n      swap1\n      dup2\n      mstore\n      0x20\n      add\n      0x00\n      keccak256\n      sload\n        /* \"contracts/BaiTapLon.sol\":938:957  UserRoles[_user]==1 */\n      sub\n        /* \"contracts/BaiTapLon.sol\":935:1202  if(UserRoles[_user]==1) {... */\n      tag_61\n      jumpi\n        /* \"contracts/BaiTapLon.sol\":974:988  return \"Admin\" */\n      mload(0x40)\n      dup1\n      0x40\n      add\n      0x40\n      mstore\n      dup1\n      0x05\n      dup2\n      mstore\n      0x20\n      add\n      0x41646d696e000000000000000000000000000000000000000000000000000000\n      dup2\n      mstore\n      pop\n      swap1\n      pop\n      jump(tag_60)\n        /* \"contracts/BaiTapLon.sol\":935:1202  if(UserRoles[_user]==1) {... */\n    tag_61:\n        /* \"contracts/BaiTapLon.sol\":1027:1028  2 */\n      0x02\n        /* \"contracts/BaiTapLon.sol\":1009:1018  UserRoles */\n      dup1\n        /* \"contracts/BaiTapLon.sol\":1009:1025  UserRoles[_user] */\n      0x00\n        /* \"contracts/BaiTapLon.sol\":1019:1024  _user */\n      dup5\n        /* \"contracts/BaiTapLon.sol\":1009:1025  UserRoles[_user] */\n      0xffffffffffffffffffffffffffffffffffffffff\n      and\n      0xffffffffffffffffffffffffffffffffffffffff\n      and\n      dup2\n      mstore\n      0x20\n      add\n      swap1\n      dup2\n      mstore\n      0x20\n      add\n      0x00\n      keccak256\n      sload\n        /* \"contracts/BaiTapLon.sol\":1009:1028  UserRoles[_user]==2 */\n      sub\n        /* \"contracts/BaiTapLon.sol\":1006:1202  if(UserRoles[_user]==2) {... */\n      tag_63\n      jumpi\n        /* \"contracts/BaiTapLon.sol\":1045:1061  return \"Manager\" */\n      mload(0x40)\n      dup1\n      0x40\n      add\n      0x40\n      mstore\n      dup1\n      0x07\n      dup2\n      mstore\n      0x20\n      add\n      0x4d616e6167657200000000000000000000000000000000000000000000000000\n      dup2\n      mstore\n      pop\n      swap1\n      pop\n      jump(tag_60)\n        /* \"contracts/BaiTapLon.sol\":1006:1202  if(UserRoles[_user]==2) {... */\n    tag_63:\n        /* \"contracts/BaiTapLon.sol\":1100:1101  3 */\n      0x03\n        /* \"contracts/BaiTapLon.sol\":1082:1091  UserRoles */\n      0x02\n        /* \"contracts/BaiTapLon.sol\":1082:1098  UserRoles[_user] */\n      0x00\n        /* \"contracts/BaiTapLon.sol\":1092:1097  _user */\n      dup5\n        /* \"contracts/BaiTapLon.sol\":1082:1098  UserRoles[_user] */\n      0xffffffffffffffffffffffffffffffffffffffff\n      and\n      0xffffffffffffffffffffffffffffffffffffffff\n      and\n      dup2\n      mstore\n      0x20\n      add\n      swap1\n      dup2\n      mstore\n      0x20\n      add\n      0x00\n      keccak256\n      sload\n        /* \"contracts/BaiTapLon.sol\":1082:1101  UserRoles[_user]==3 */\n      sub\n        /* \"contracts/BaiTapLon.sol\":1079:1202  if(UserRoles[_user]==3) {... */\n      tag_65\n      jumpi\n        /* \"contracts/BaiTapLon.sol\":1118:1131  return \"User\" */\n      mload(0x40)\n      dup1\n      0x40\n      add\n      0x40\n      mstore\n      dup1\n      0x04\n      dup2\n      mstore\n      0x20\n      add\n      0x5573657200000000000000000000000000000000000000000000000000000000\n      dup2\n      mstore\n      pop\n      swap1\n      pop\n      jump(tag_60)\n        /* \"contracts/BaiTapLon.sol\":1079:1202  if(UserRoles[_user]==3) {... */\n    tag_65:\n        /* \"contracts/BaiTapLon.sol\":1164:1190  return \"Can not find data\" */\n      mload(0x40)\n      dup1\n      0x40\n      add\n      0x40\n      mstore\n      dup1\n      0x11\n      dup2\n      mstore\n      0x20\n      add\n      0x43616e206e6f742066696e642064617461000000000000000000000000000000\n      dup2\n      mstore\n      pop\n      swap1\n      pop\n        /* \"contracts/BaiTapLon.sol\":850:1209  function checking_roles(address _user) public view returns(string memory) {... */\n    tag_60:\n      swap2\n      swap1\n      pop\n      jump\t// out\n        /* \"contracts/BaiTapLon.sol\":2158:2294  function deposit(uint value) public {... */\n    tag_38:\n        /* \"contracts/BaiTapLon.sol\":2233:2238  value */\n      dup1\n        /* \"contracts/BaiTapLon.sol\":2205:2217  Balance_Bank */\n      0x03\n        /* \"contracts/BaiTapLon.sol\":2205:2229  Balance_Bank[msg.sender] */\n      0x00\n        /* \"contracts/BaiTapLon.sol\":2218:2228  msg.sender */\n      caller\n        /* \"contracts/BaiTapLon.sol\":2205:2229  Balance_Bank[msg.sender] */\n      0xffffffffffffffffffffffffffffffffffffffff\n      and\n      0xffffffffffffffffffffffffffffffffffffffff\n      and\n      dup2\n      mstore\n      0x20\n      add\n      swap1\n      dup2\n      mstore\n      0x20\n      add\n      0x00\n      keccak256\n      0x00\n        /* \"contracts/BaiTapLon.sol\":2205:2238  Balance_Bank[msg.sender] += value */\n      dup3\n      dup3\n      sload\n      tag_68\n      swap2\n      swap1\n      tag_48\n      jump\t// in\n    tag_68:\n      swap3\n      pop\n      pop\n      dup2\n      swap1\n      sstore\n      pop\n        /* \"contracts/BaiTapLon.sol\":2274:2279  value */\n      dup1\n        /* \"contracts/BaiTapLon.sol\":2250:2258  Balances */\n      0x04\n        /* \"contracts/BaiTapLon.sol\":2250:2270  Balances[msg.sender] */\n      0x00\n        /* \"contracts/BaiTapLon.sol\":2259:2269  msg.sender */\n      caller\n        /* \"contracts/BaiTapLon.sol\":2250:2270  Balances[msg.sender] */\n      0xffffffffffffffffffffffffffffffffffffffff\n      and\n      0xffffffffffffffffffffffffffffffffffffffff\n      and\n      dup2\n      mstore\n      0x20\n      add\n      swap1\n      dup2\n      mstore\n      0x20\n      add\n      0x00\n      keccak256\n      0x00\n        /* \"contracts/BaiTapLon.sol\":2250:2279  Balances[msg.sender] -= value */\n      dup3\n      dup3\n      sload\n      tag_69\n      swap2\n      swap1\n      tag_46\n      jump\t// in\n    tag_69:\n      swap3\n      pop\n      pop\n      dup2\n      swap1\n      sstore\n      pop\n        /* \"contracts/BaiTapLon.sol\":2158:2294  function deposit(uint value) public {... */\n      pop\n      jump\t// out\n        /* \"contracts/BaiTapLon.sol\":1683:1849  function loan(uint value, uint month) internal requestLoan(value){... */\n    tag_51:\n        /* \"contracts/BaiTapLon.sol\":1742:1747  value */\n      dup2\n        /* \"contracts/BaiTapLon.sol\":1534:1536  10 */\n      0x0a\n        /* \"contracts/BaiTapLon.sol\":1511:1519  Balances */\n      0x04\n        /* \"contracts/BaiTapLon.sol\":1511:1531  Balances[msg.sender] */\n      0x00\n        /* \"contracts/BaiTapLon.sol\":1520:1530  msg.sender */\n      caller\n        /* \"contracts/BaiTapLon.sol\":1511:1531  Balances[msg.sender] */\n      0xffffffffffffffffffffffffffffffffffffffff\n      and\n      0xffffffffffffffffffffffffffffffffffffffff\n      and\n      dup2\n      mstore\n      0x20\n      add\n      swap1\n      dup2\n      mstore\n      0x20\n      add\n      0x00\n      keccak256\n      sload\n        /* \"contracts/BaiTapLon.sol\":1511:1536  Balances[msg.sender] < 10 */\n      lt\n        /* \"contracts/BaiTapLon.sol\":1503:1559  require(Balances[msg.sender] < 10, \"You can not solve!\") */\n      tag_71\n      jumpi\n      mload(0x40)\n      0x08c379a000000000000000000000000000000000000000000000000000000000\n      dup2\n      mstore\n      0x04\n      add\n      tag_72\n      swap1\n      tag_55\n      jump\t// in\n    tag_72:\n      mload(0x40)\n      dup1\n      swap2\n      sub\n      swap1\n      revert\n    tag_71:\n        /* \"contracts/BaiTapLon.sol\":1587:1589  10 */\n      0x0a\n        /* \"contracts/BaiTapLon.sol\":1578:1583  value */\n      dup2\n        /* \"contracts/BaiTapLon.sol\":1578:1589  value >= 10 */\n      lt\n      iszero\n        /* \"contracts/BaiTapLon.sol\":1570:1619  require(value >= 10, \"Value < 10! Can not solve\") */\n      tag_73\n      jumpi\n      mload(0x40)\n      0x08c379a000000000000000000000000000000000000000000000000000000000\n      dup2\n      mstore\n      0x04\n      add\n      tag_74\n      swap1\n      tag_75\n      jump\t// in\n    tag_74:\n      mload(0x40)\n      dup1\n      swap2\n      sub\n      swap1\n      revert\n    tag_73:\n        /* \"contracts/BaiTapLon.sol\":1796:1801  value */\n      dup3\n        /* \"contracts/BaiTapLon.sol\":1791:1793  10 */\n      0x0a\n        /* \"contracts/BaiTapLon.sol\":1785:1790  month */\n      dup4\n        /* \"contracts/BaiTapLon.sol\":1779:1784  value */\n      dup6\n        /* \"contracts/BaiTapLon.sol\":1779:1790  value*month */\n      tag_77\n      swap2\n      swap1\n      tag_78\n      jump\t// in\n    tag_77:\n        /* \"contracts/BaiTapLon.sol\":1779:1793  value*month/10 */\n      tag_79\n      swap2\n      swap1\n      tag_80\n      jump\t// in\n    tag_79:\n        /* \"contracts/BaiTapLon.sol\":1779:1801  value*month/10 + value */\n      tag_81\n      swap2\n      swap1\n      tag_48\n      jump\t// in\n    tag_81:\n        /* \"contracts/BaiTapLon.sol\":1759:1764  loans */\n      0x05\n        /* \"contracts/BaiTapLon.sol\":1759:1776  loans[msg.sender] */\n      0x00\n        /* \"contracts/BaiTapLon.sol\":1765:1775  msg.sender */\n      caller\n        /* \"contracts/BaiTapLon.sol\":1759:1776  loans[msg.sender] */\n      0xffffffffffffffffffffffffffffffffffffffff\n      and\n      0xffffffffffffffffffffffffffffffffffffffff\n      and\n      dup2\n      mstore\n      0x20\n      add\n      swap1\n      dup2\n      mstore\n      0x20\n      add\n      0x00\n      keccak256\n        /* \"contracts/BaiTapLon.sol\":1759:1801  loans[msg.sender] = value*month/10 + value */\n      dup2\n      swap1\n      sstore\n      pop\n        /* \"contracts/BaiTapLon.sol\":1836:1841  value */\n      dup3\n        /* \"contracts/BaiTapLon.sol\":1812:1820  Balances */\n      0x04\n        /* \"contracts/BaiTapLon.sol\":1812:1832  Balances[msg.sender] */\n      0x00\n        /* \"contracts/BaiTapLon.sol\":1821:1831  msg.sender */\n      caller\n        /* \"contracts/BaiTapLon.sol\":1812:1832  Balances[msg.sender] */\n      0xffffffffffffffffffffffffffffffffffffffff\n      and\n      0xffffffffffffffffffffffffffffffffffffffff\n      and\n      dup2\n      mstore\n      0x20\n      add\n      swap1\n      dup2\n      mstore\n      0x20\n      add\n      0x00\n      keccak256\n      0x00\n        /* \"contracts/BaiTapLon.sol\":1812:1841  Balances[msg.sender] += value */\n      dup3\n      dup3\n      sload\n      tag_82\n      swap2\n      swap1\n      tag_48\n      jump\t// in\n    tag_82:\n      swap3\n      pop\n      pop\n      dup2\n      swap1\n      sstore\n      pop\n        /* \"contracts/BaiTapLon.sol\":1683:1849  function loan(uint value, uint month) internal requestLoan(value){... */\n      pop\n      pop\n      pop\n      jump\t// out\n        /* \"contracts/BaiTapLon.sol\":421:832  function adding_roles(address _user, uint roles) internal {... */\n    tag_58:\n        /* \"contracts/BaiTapLon.sol\":591:592  1 */\n      0x01\n        /* \"contracts/BaiTapLon.sol\":584:589  roles */\n      dup2\n        /* \"contracts/BaiTapLon.sol\":584:592  roles==1 */\n      sub\n        /* \"contracts/BaiTapLon.sol\":581:825  if(roles==1) {... */\n      tag_84\n      jumpi\n        /* \"contracts/BaiTapLon.sol\":624:629  _user */\n      dup2\n        /* \"contracts/BaiTapLon.sol\":609:621  Adminstrator */\n      0x00\n      dup1\n        /* \"contracts/BaiTapLon.sol\":609:629  Adminstrator = _user */\n      0x0100\n      exp\n      dup2\n      sload\n      dup2\n      0xffffffffffffffffffffffffffffffffffffffff\n      mul\n      not\n      and\n      swap1\n      dup4\n      0xffffffffffffffffffffffffffffffffffffffff\n      and\n      mul\n      or\n      swap1\n      sstore\n      pop\n        /* \"contracts/BaiTapLon.sol\":663:664  1 */\n      0x01\n        /* \"contracts/BaiTapLon.sol\":644:653  UserRoles */\n      0x02\n        /* \"contracts/BaiTapLon.sol\":644:660  UserRoles[_user] */\n      0x00\n        /* \"contracts/BaiTapLon.sol\":654:659  _user */\n      dup5\n        /* \"contracts/BaiTapLon.sol\":644:660  UserRoles[_user] */\n      0xffffffffffffffffffffffffffffffffffffffff\n      and\n      0xffffffffffffffffffffffffffffffffffffffff\n      and\n      dup2\n      mstore\n      0x20\n      add\n      swap1\n      dup2\n      mstore\n      0x20\n      add\n      0x00\n      keccak256\n        /* \"contracts/BaiTapLon.sol\":644:664  UserRoles[_user] = 1 */\n      dup2\n      swap1\n      sstore\n      pop\n        /* \"contracts/BaiTapLon.sol\":581:825  if(roles==1) {... */\n      jump(tag_85)\n    tag_84:\n        /* \"contracts/BaiTapLon.sol\":692:693  2 */\n      0x02\n        /* \"contracts/BaiTapLon.sol\":685:690  roles */\n      dup2\n        /* \"contracts/BaiTapLon.sol\":685:693  roles==2 */\n      sub\n        /* \"contracts/BaiTapLon.sol\":682:825  if(roles==2) {... */\n      tag_86\n      jumpi\n        /* \"contracts/BaiTapLon.sol\":720:725  _user */\n      dup2\n        /* \"contracts/BaiTapLon.sol\":710:717  Manager */\n      0x01\n      0x00\n        /* \"contracts/BaiTapLon.sol\":710:725  Manager = _user */\n      0x0100\n      exp\n      dup2\n      sload\n      dup2\n      0xffffffffffffffffffffffffffffffffffffffff\n      mul\n      not\n      and\n      swap1\n      dup4\n      0xffffffffffffffffffffffffffffffffffffffff\n      and\n      mul\n      or\n      swap1\n      sstore\n      pop\n        /* \"contracts/BaiTapLon.sol\":759:760  2 */\n      0x02\n        /* \"contracts/BaiTapLon.sol\":740:749  UserRoles */\n      dup1\n        /* \"contracts/BaiTapLon.sol\":740:756  UserRoles[_user] */\n      0x00\n        /* \"contracts/BaiTapLon.sol\":750:755  _user */\n      dup5\n        /* \"contracts/BaiTapLon.sol\":740:756  UserRoles[_user] */\n      0xffffffffffffffffffffffffffffffffffffffff\n      and\n      0xffffffffffffffffffffffffffffffffffffffff\n      and\n      dup2\n      mstore\n      0x20\n      add\n      swap1\n      dup2\n      mstore\n      0x20\n      add\n      0x00\n      keccak256\n        /* \"contracts/BaiTapLon.sol\":740:760  UserRoles[_user] = 2 */\n      dup2\n      swap1\n      sstore\n      pop\n        /* \"contracts/BaiTapLon.sol\":682:825  if(roles==2) {... */\n      jump(tag_87)\n    tag_86:\n        /* \"contracts/BaiTapLon.sol\":812:813  3 */\n      0x03\n        /* \"contracts/BaiTapLon.sol\":793:802  UserRoles */\n      0x02\n        /* \"contracts/BaiTapLon.sol\":793:809  UserRoles[_user] */\n      0x00\n        /* \"contracts/BaiTapLon.sol\":803:808  _user */\n      dup5\n        /* \"contracts/BaiTapLon.sol\":793:809  UserRoles[_user] */\n      0xffffffffffffffffffffffffffffffffffffffff\n      and\n      0xffffffffffffffffffffffffffffffffffffffff\n      and\n      dup2\n      mstore\n      0x20\n      add\n      swap1\n      dup2\n      mstore\n      0x20\n      add\n      0x00\n      keccak256\n        /* \"contracts/BaiTapLon.sol\":793:813  UserRoles[_user] = 3 */\n      dup2\n      swap1\n      sstore\n      pop\n        /* \"contracts/BaiTapLon.sol\":682:825  if(roles==2) {... */\n    tag_87:\n        /* \"contracts/BaiTapLon.sol\":581:825  if(roles==1) {... */\n    tag_85:\n        /* \"contracts/BaiTapLon.sol\":421:832  function adding_roles(address _user, uint roles) internal {... */\n      pop\n      pop\n      jump\t// out\n        /* \"#utility.yul\":7:84   */\n    tag_88:\n        /* \"#utility.yul\":44:51   */\n      0x00\n        /* \"#utility.yul\":73:78   */\n      dup2\n        /* \"#utility.yul\":62:78   */\n      swap1\n      pop\n        /* \"#utility.yul\":7:84   */\n      swap2\n      swap1\n      pop\n      jump\t// out\n        /* \"#utility.yul\":90:208   */\n    tag_89:\n        /* \"#utility.yul\":177:201   */\n      tag_115\n        /* \"#utility.yul\":195:200   */\n      dup2\n        /* \"#utility.yul\":177:201   */\n      tag_88\n      jump\t// in\n    tag_115:\n        /* \"#utility.yul\":172:175   */\n      dup3\n        /* \"#utility.yul\":165:202   */\n      mstore\n        /* \"#utility.yul\":90:208   */\n      pop\n      pop\n      jump\t// out\n        /* \"#utility.yul\":214:436   */\n    tag_14:\n        /* \"#utility.yul\":307:311   */\n      0x00\n        /* \"#utility.yul\":345:347   */\n      0x20\n        /* \"#utility.yul\":334:343   */\n      dup3\n        /* \"#utility.yul\":330:348   */\n      add\n        /* \"#utility.yul\":322:348   */\n      swap1\n      pop\n        /* \"#utility.yul\":358:429   */\n      tag_117\n        /* \"#utility.yul\":426:427   */\n      0x00\n        /* \"#utility.yul\":415:424   */\n      dup4\n        /* \"#utility.yul\":411:428   */\n      add\n        /* \"#utility.yul\":402:408   */\n      dup5\n        /* \"#utility.yul\":358:429   */\n      tag_89\n      jump\t// in\n    tag_117:\n        /* \"#utility.yul\":214:436   */\n      swap3\n      swap2\n      pop\n      pop\n      jump\t// out\n        /* \"#utility.yul\":523:640   */\n    tag_91:\n        /* \"#utility.yul\":632:633   */\n      0x00\n        /* \"#utility.yul\":629:630   */\n      dup1\n        /* \"#utility.yul\":622:634   */\n      revert\n        /* \"#utility.yul\":769:891   */\n    tag_93:\n        /* \"#utility.yul\":842:866   */\n      tag_122\n        /* \"#utility.yul\":860:865   */\n      dup2\n        /* \"#utility.yul\":842:866   */\n      tag_88\n      jump\t// in\n    tag_122:\n        /* \"#utility.yul\":835:840   */\n      dup2\n        /* \"#utility.yul\":832:867   */\n      eq\n        /* \"#utility.yul\":822:885   */\n      tag_123\n      jumpi\n        /* \"#utility.yul\":881:882   */\n      0x00\n        /* \"#utility.yul\":878:879   */\n      dup1\n        /* \"#utility.yul\":871:883   */\n      revert\n        /* \"#utility.yul\":822:885   */\n    tag_123:\n        /* \"#utility.yul\":769:891   */\n      pop\n      jump\t// out\n        /* \"#utility.yul\":897:1036   */\n    tag_94:\n        /* \"#utility.yul\":943:948   */\n      0x00\n        /* \"#utility.yul\":981:987   */\n      dup2\n        /* \"#utility.yul\":968:988   */\n      calldataload\n        /* \"#utility.yul\":959:988   */\n      swap1\n      pop\n        /* \"#utility.yul\":997:1030   */\n      tag_125\n        /* \"#utility.yul\":1024:1029   */\n      dup2\n        /* \"#utility.yul\":997:1030   */\n      tag_93\n      jump\t// in\n    tag_125:\n        /* \"#utility.yul\":897:1036   */\n      swap3\n      swap2\n      pop\n      pop\n      jump\t// out\n        /* \"#utility.yul\":1042:1371   */\n    tag_17:\n        /* \"#utility.yul\":1101:1107   */\n      0x00\n        /* \"#utility.yul\":1150:1152   */\n      0x20\n        /* \"#utility.yul\":1138:1147   */\n      dup3\n        /* \"#utility.yul\":1129:1136   */\n      dup5\n        /* \"#utility.yul\":1125:1148   */\n      sub\n        /* \"#utility.yul\":1121:1153   */\n      slt\n        /* \"#utility.yul\":1118:1237   */\n      iszero\n      tag_127\n      jumpi\n        /* \"#utility.yul\":1156:1235   */\n      tag_128\n      tag_91\n      jump\t// in\n    tag_128:\n        /* \"#utility.yul\":1118:1237   */\n    tag_127:\n        /* \"#utility.yul\":1276:1277   */\n      0x00\n        /* \"#utility.yul\":1301:1354   */\n      tag_129\n        /* \"#utility.yul\":1346:1353   */\n      dup5\n        /* \"#utility.yul\":1337:1343   */\n      dup3\n        /* \"#utility.yul\":1326:1335   */\n      dup6\n        /* \"#utility.yul\":1322:1344   */\n      add\n        /* \"#utility.yul\":1301:1354   */\n      tag_94\n      jump\t// in\n    tag_129:\n        /* \"#utility.yul\":1291:1354   */\n      swap2\n      pop\n        /* \"#utility.yul\":1247:1364   */\n      pop\n        /* \"#utility.yul\":1042:1371   */\n      swap3\n      swap2\n      pop\n      pop\n      jump\t// out\n        /* \"#utility.yul\":1377:1851   */\n    tag_21:\n        /* \"#utility.yul\":1445:1451   */\n      0x00\n        /* \"#utility.yul\":1453:1459   */\n      dup1\n        /* \"#utility.yul\":1502:1504   */\n      0x40\n        /* \"#utility.yul\":1490:1499   */\n      dup4\n        /* \"#utility.yul\":1481:1488   */\n      dup6\n        /* \"#utility.yul\":1477:1500   */\n      sub\n        /* \"#utility.yul\":1473:1505   */\n      slt\n        /* \"#utility.yul\":1470:1589   */\n      iszero\n      tag_131\n      jumpi\n        /* \"#utility.yul\":1508:1587   */\n      tag_132\n      tag_91\n      jump\t// in\n    tag_132:\n        /* \"#utility.yul\":1470:1589   */\n    tag_131:\n        /* \"#utility.yul\":1628:1629   */\n      0x00\n        /* \"#utility.yul\":1653:1706   */\n      tag_133\n        /* \"#utility.yul\":1698:1705   */\n      dup6\n        /* \"#utility.yul\":1689:1695   */\n      dup3\n        /* \"#utility.yul\":1678:1687   */\n      dup7\n        /* \"#utility.yul\":1674:1696   */\n      add\n        /* \"#utility.yul\":1653:1706   */\n      tag_94\n      jump\t// in\n    tag_133:\n        /* \"#utility.yul\":1643:1706   */\n      swap3\n      pop\n        /* \"#utility.yul\":1599:1716   */\n      pop\n        /* \"#utility.yul\":1755:1757   */\n      0x20\n        /* \"#utility.yul\":1781:1834   */\n      tag_134\n        /* \"#utility.yul\":1826:1833   */\n      dup6\n        /* \"#utility.yul\":1817:1823   */\n      dup3\n        /* \"#utility.yul\":1806:1815   */\n      dup7\n        /* \"#utility.yul\":1802:1824   */\n      add\n        /* \"#utility.yul\":1781:1834   */\n      tag_94\n      jump\t// in\n    tag_134:\n        /* \"#utility.yul\":1771:1834   */\n      swap2\n      pop\n        /* \"#utility.yul\":1726:1844   */\n      pop\n        /* \"#utility.yul\":1377:1851   */\n      swap3\n      pop\n      swap3\n      swap1\n      pop\n      jump\t// out\n        /* \"#utility.yul\":1857:1983   */\n    tag_95:\n        /* \"#utility.yul\":1894:1901   */\n      0x00\n        /* \"#utility.yul\":1934:1976   */\n      0xffffffffffffffffffffffffffffffffffffffff\n        /* \"#utility.yul\":1927:1932   */\n      dup3\n        /* \"#utility.yul\":1923:1977   */\n      and\n        /* \"#utility.yul\":1912:1977   */\n      swap1\n      pop\n        /* \"#utility.yul\":1857:1983   */\n      swap2\n      swap1\n      pop\n      jump\t// out\n        /* \"#utility.yul\":1989:2085   */\n    tag_96:\n        /* \"#utility.yul\":2026:2033   */\n      0x00\n        /* \"#utility.yul\":2055:2079   */\n      tag_137\n        /* \"#utility.yul\":2073:2078   */\n      dup3\n        /* \"#utility.yul\":2055:2079   */\n      tag_95\n      jump\t// in\n    tag_137:\n        /* \"#utility.yul\":2044:2079   */\n      swap1\n      pop\n        /* \"#utility.yul\":1989:2085   */\n      swap2\n      swap1\n      pop\n      jump\t// out\n        /* \"#utility.yul\":2091:2213   */\n    tag_97:\n        /* \"#utility.yul\":2164:2188   */\n      tag_139\n        /* \"#utility.yul\":2182:2187   */\n      dup2\n        /* \"#utility.yul\":2164:2188   */\n      tag_96\n      jump\t// in\n    tag_139:\n        /* \"#utility.yul\":2157:2162   */\n      dup2\n        /* \"#utility.yul\":2154:2189   */\n      eq\n        /* \"#utility.yul\":2144:2207   */\n      tag_140\n      jumpi\n        /* \"#utility.yul\":2203:2204   */\n      0x00\n        /* \"#utility.yul\":2200:2201   */\n      dup1\n        /* \"#utility.yul\":2193:2205   */\n      revert\n        /* \"#utility.yul\":2144:2207   */\n    tag_140:\n        /* \"#utility.yul\":2091:2213   */\n      pop\n      jump\t// out\n        /* \"#utility.yul\":2219:2358   */\n    tag_98:\n        /* \"#utility.yul\":2265:2270   */\n      0x00\n        /* \"#utility.yul\":2303:2309   */\n      dup2\n        /* \"#utility.yul\":2290:2310   */\n      calldataload\n        /* \"#utility.yul\":2281:2310   */\n      swap1\n      pop\n        /* \"#utility.yul\":2319:2352   */\n      tag_142\n        /* \"#utility.yul\":2346:2351   */\n      dup2\n        /* \"#utility.yul\":2319:2352   */\n      tag_97\n      jump\t// in\n    tag_142:\n        /* \"#utility.yul\":2219:2358   */\n      swap3\n      swap2\n      pop\n      pop\n      jump\t// out\n        /* \"#utility.yul\":2364:2838   */\n    tag_25:\n        /* \"#utility.yul\":2432:2438   */\n      0x00\n        /* \"#utility.yul\":2440:2446   */\n      dup1\n        /* \"#utility.yul\":2489:2491   */\n      0x40\n        /* \"#utility.yul\":2477:2486   */\n      dup4\n        /* \"#utility.yul\":2468:2475   */\n      dup6\n        /* \"#utility.yul\":2464:2487   */\n      sub\n        /* \"#utility.yul\":2460:2492   */\n      slt\n        /* \"#utility.yul\":2457:2576   */\n      iszero\n      tag_144\n      jumpi\n        /* \"#utility.yul\":2495:2574   */\n      tag_145\n      tag_91\n      jump\t// in\n    tag_145:\n        /* \"#utility.yul\":2457:2576   */\n    tag_144:\n        /* \"#utility.yul\":2615:2616   */\n      0x00\n        /* \"#utility.yul\":2640:2693   */\n      tag_146\n        /* \"#utility.yul\":2685:2692   */\n      dup6\n        /* \"#utility.yul\":2676:2682   */\n      dup3\n        /* \"#utility.yul\":2665:2674   */\n      dup7\n        /* \"#utility.yul\":2661:2683   */\n      add\n        /* \"#utility.yul\":2640:2693   */\n      tag_98\n      jump\t// in\n    tag_146:\n        /* \"#utility.yul\":2630:2693   */\n      swap3\n      pop\n        /* \"#utility.yul\":2586:2703   */\n      pop\n        /* \"#utility.yul\":2742:2744   */\n      0x20\n        /* \"#utility.yul\":2768:2821   */\n      tag_147\n        /* \"#utility.yul\":2813:2820   */\n      dup6\n        /* \"#utility.yul\":2804:2810   */\n      dup3\n        /* \"#utility.yul\":2793:2802   */\n      dup7\n        /* \"#utility.yul\":2789:2811   */\n      add\n        /* \"#utility.yul\":2768:2821   */\n      tag_94\n      jump\t// in\n    tag_147:\n        /* \"#utility.yul\":2758:2821   */\n      swap2\n      pop\n        /* \"#utility.yul\":2713:2831   */\n      pop\n        /* \"#utility.yul\":2364:2838   */\n      swap3\n      pop\n      swap3\n      swap1\n      pop\n      jump\t// out\n        /* \"#utility.yul\":2844:3173   */\n    tag_32:\n        /* \"#utility.yul\":2903:2909   */\n      0x00\n        /* \"#utility.yul\":2952:2954   */\n      0x20\n        /* \"#utility.yul\":2940:2949   */\n      dup3\n        /* \"#utility.yul\":2931:2938   */\n      dup5\n        /* \"#utility.yul\":2927:2950   */\n      sub\n        /* \"#utility.yul\":2923:2955   */\n      slt\n        /* \"#utility.yul\":2920:3039   */\n      iszero\n      tag_149\n      jumpi\n        /* \"#utility.yul\":2958:3037   */\n      tag_150\n      tag_91\n      jump\t// in\n    tag_150:\n        /* \"#utility.yul\":2920:3039   */\n    tag_149:\n        /* \"#utility.yul\":3078:3079   */\n      0x00\n        /* \"#utility.yul\":3103:3156   */\n      tag_151\n        /* \"#utility.yul\":3148:3155   */\n      dup5\n        /* \"#utility.yul\":3139:3145   */\n      dup3\n        /* \"#utility.yul\":3128:3137   */\n      dup6\n        /* \"#utility.yul\":3124:3146   */\n      add\n        /* \"#utility.yul\":3103:3156   */\n      tag_98\n      jump\t// in\n    tag_151:\n        /* \"#utility.yul\":3093:3156   */\n      swap2\n      pop\n        /* \"#utility.yul\":3049:3166   */\n      pop\n        /* \"#utility.yul\":2844:3173   */\n      swap3\n      swap2\n      pop\n      pop\n      jump\t// out\n        /* \"#utility.yul\":3179:3278   */\n    tag_99:\n        /* \"#utility.yul\":3231:3237   */\n      0x00\n        /* \"#utility.yul\":3265:3270   */\n      dup2\n        /* \"#utility.yul\":3259:3271   */\n      mload\n        /* \"#utility.yul\":3249:3271   */\n      swap1\n      pop\n        /* \"#utility.yul\":3179:3278   */\n      swap2\n      swap1\n      pop\n      jump\t// out\n        /* \"#utility.yul\":3284:3453   */\n    tag_100:\n        /* \"#utility.yul\":3368:3379   */\n      0x00\n        /* \"#utility.yul\":3402:3408   */\n      dup3\n        /* \"#utility.yul\":3397:3400   */\n      dup3\n        /* \"#utility.yul\":3390:3409   */\n      mstore\n        /* \"#utility.yul\":3442:3446   */\n      0x20\n        /* \"#utility.yul\":3437:3440   */\n      dup3\n        /* \"#utility.yul\":3433:3447   */\n      add\n        /* \"#utility.yul\":3418:3447   */\n      swap1\n      pop\n        /* \"#utility.yul\":3284:3453   */\n      swap3\n      swap2\n      pop\n      pop\n      jump\t// out\n        /* \"#utility.yul\":3459:3705   */\n    tag_101:\n        /* \"#utility.yul\":3540:3541   */\n      0x00\n        /* \"#utility.yul\":3550:3663   */\n    tag_155:\n        /* \"#utility.yul\":3564:3570   */\n      dup4\n        /* \"#utility.yul\":3561:3562   */\n      dup2\n        /* \"#utility.yul\":3558:3571   */\n      lt\n        /* \"#utility.yul\":3550:3663   */\n      iszero\n      tag_157\n      jumpi\n        /* \"#utility.yul\":3649:3650   */\n      dup1\n        /* \"#utility.yul\":3644:3647   */\n      dup3\n        /* \"#utility.yul\":3640:3651   */\n      add\n        /* \"#utility.yul\":3634:3652   */\n      mload\n        /* \"#utility.yul\":3630:3631   */\n      dup2\n        /* \"#utility.yul\":3625:3628   */\n      dup5\n        /* \"#utility.yul\":3621:3632   */\n      add\n        /* \"#utility.yul\":3614:3653   */\n      mstore\n        /* \"#utility.yul\":3586:3588   */\n      0x20\n        /* \"#utility.yul\":3583:3584   */\n      dup2\n        /* \"#utility.yul\":3579:3589   */\n      add\n        /* \"#utility.yul\":3574:3589   */\n      swap1\n      pop\n        /* \"#utility.yul\":3550:3663   */\n      jump(tag_155)\n    tag_157:\n        /* \"#utility.yul\":3697:3698   */\n      0x00\n        /* \"#utility.yul\":3688:3694   */\n      dup5\n        /* \"#utility.yul\":3683:3686   */\n      dup5\n        /* \"#utility.yul\":3679:3695   */\n      add\n        /* \"#utility.yul\":3672:3699   */\n      mstore\n        /* \"#utility.yul\":3521:3705   */\n      pop\n        /* \"#utility.yul\":3459:3705   */\n      pop\n      pop\n      pop\n      jump\t// out\n        /* \"#utility.yul\":3711:3813   */\n    tag_102:\n        /* \"#utility.yul\":3752:3758   */\n      0x00\n        /* \"#utility.yul\":3803:3805   */\n      0x1f\n        /* \"#utility.yul\":3799:3806   */\n      not\n        /* \"#utility.yul\":3794:3796   */\n      0x1f\n        /* \"#utility.yul\":3787:3792   */\n      dup4\n        /* \"#utility.yul\":3783:3797   */\n      add\n        /* \"#utility.yul\":3779:3807   */\n      and\n        /* \"#utility.yul\":3769:3807   */\n      swap1\n      pop\n        /* \"#utility.yul\":3711:3813   */\n      swap2\n      swap1\n      pop\n      jump\t// out\n        /* \"#utility.yul\":3819:4196   */\n    tag_103:\n        /* \"#utility.yul\":3907:3910   */\n      0x00\n        /* \"#utility.yul\":3935:3974   */\n      tag_160\n        /* \"#utility.yul\":3968:3973   */\n      dup3\n        /* \"#utility.yul\":3935:3974   */\n      tag_99\n      jump\t// in\n    tag_160:\n        /* \"#utility.yul\":3990:4061   */\n      tag_161\n        /* \"#utility.yul\":4054:4060   */\n      dup2\n        /* \"#utility.yul\":4049:4052   */\n      dup6\n        /* \"#utility.yul\":3990:4061   */\n      tag_100\n      jump\t// in\n    tag_161:\n        /* \"#utility.yul\":3983:4061   */\n      swap4\n      pop\n        /* \"#utility.yul\":4070:4135   */\n      tag_162\n        /* \"#utility.yul\":4128:4134   */\n      dup2\n        /* \"#utility.yul\":4123:4126   */\n      dup6\n        /* \"#utility.yul\":4116:4120   */\n      0x20\n        /* \"#utility.yul\":4109:4114   */\n      dup7\n        /* \"#utility.yul\":4105:4121   */\n      add\n        /* \"#utility.yul\":4070:4135   */\n      tag_101\n      jump\t// in\n    tag_162:\n        /* \"#utility.yul\":4160:4189   */\n      tag_163\n        /* \"#utility.yul\":4182:4188   */\n      dup2\n        /* \"#utility.yul\":4160:4189   */\n      tag_102\n      jump\t// in\n    tag_163:\n        /* \"#utility.yul\":4155:4158   */\n      dup5\n        /* \"#utility.yul\":4151:4190   */\n      add\n        /* \"#utility.yul\":4144:4190   */\n      swap2\n      pop\n        /* \"#utility.yul\":3911:4196   */\n      pop\n        /* \"#utility.yul\":3819:4196   */\n      swap3\n      swap2\n      pop\n      pop\n      jump\t// out\n        /* \"#utility.yul\":4202:4515   */\n    tag_35:\n        /* \"#utility.yul\":4315:4319   */\n      0x00\n        /* \"#utility.yul\":4353:4355   */\n      0x20\n        /* \"#utility.yul\":4342:4351   */\n      dup3\n        /* \"#utility.yul\":4338:4356   */\n      add\n        /* \"#utility.yul\":4330:4356   */\n      swap1\n      pop\n        /* \"#utility.yul\":4402:4411   */\n      dup2\n        /* \"#utility.yul\":4396:4400   */\n      dup2\n        /* \"#utility.yul\":4392:4412   */\n      sub\n        /* \"#utility.yul\":4388:4389   */\n      0x00\n        /* \"#utility.yul\":4377:4386   */\n      dup4\n        /* \"#utility.yul\":4373:4390   */\n      add\n        /* \"#utility.yul\":4366:4413   */\n      mstore\n        /* \"#utility.yul\":4430:4508   */\n      tag_165\n        /* \"#utility.yul\":4503:4507   */\n      dup2\n        /* \"#utility.yul\":4494:4500   */\n      dup5\n        /* \"#utility.yul\":4430:4508   */\n      tag_103\n      jump\t// in\n    tag_165:\n        /* \"#utility.yul\":4422:4508   */\n      swap1\n      pop\n        /* \"#utility.yul\":4202:4515   */\n      swap3\n      swap2\n      pop\n      pop\n      jump\t// out\n        /* \"#utility.yul\":4521:4692   */\n    tag_104:\n        /* \"#utility.yul\":4661:4684   */\n      0x596f75206e6f7420656e6f756768206d6f6e6579210000000000000000000000\n        /* \"#utility.yul\":4657:4658   */\n      0x00\n        /* \"#utility.yul\":4649:4655   */\n      dup3\n        /* \"#utility.yul\":4645:4659   */\n      add\n        /* \"#utility.yul\":4638:4685   */\n      mstore\n        /* \"#utility.yul\":4521:4692   */\n      pop\n      jump\t// out\n        /* \"#utility.yul\":4698:5064   */\n    tag_105:\n        /* \"#utility.yul\":4840:4843   */\n      0x00\n        /* \"#utility.yul\":4861:4928   */\n      tag_168\n        /* \"#utility.yul\":4925:4927   */\n      0x15\n        /* \"#utility.yul\":4920:4923   */\n      dup4\n        /* \"#utility.yul\":4861:4928   */\n      tag_100\n      jump\t// in\n    tag_168:\n        /* \"#utility.yul\":4854:4928   */\n      swap2\n      pop\n        /* \"#utility.yul\":4937:5030   */\n      tag_169\n        /* \"#utility.yul\":5026:5029   */\n      dup3\n        /* \"#utility.yul\":4937:5030   */\n      tag_104\n      jump\t// in\n    tag_169:\n        /* \"#utility.yul\":5055:5057   */\n      0x20\n        /* \"#utility.yul\":5050:5053   */\n      dup3\n        /* \"#utility.yul\":5046:5058   */\n      add\n        /* \"#utility.yul\":5039:5058   */\n      swap1\n      pop\n        /* \"#utility.yul\":4698:5064   */\n      swap2\n      swap1\n      pop\n      jump\t// out\n        /* \"#utility.yul\":5070:5489   */\n    tag_43:\n        /* \"#utility.yul\":5236:5240   */\n      0x00\n        /* \"#utility.yul\":5274:5276   */\n      0x20\n        /* \"#utility.yul\":5263:5272   */\n      dup3\n        /* \"#utility.yul\":5259:5277   */\n      add\n        /* \"#utility.yul\":5251:5277   */\n      swap1\n      pop\n        /* \"#utility.yul\":5323:5332   */\n      dup2\n        /* \"#utility.yul\":5317:5321   */\n      dup2\n        /* \"#utility.yul\":5313:5333   */\n      sub\n        /* \"#utility.yul\":5309:5310   */\n      0x00\n        /* \"#utility.yul\":5298:5307   */\n      dup4\n        /* \"#utility.yul\":5294:5311   */\n      add\n        /* \"#utility.yul\":5287:5334   */\n      mstore\n        /* \"#utility.yul\":5351:5482   */\n      tag_171\n        /* \"#utility.yul\":5477:5481   */\n      dup2\n        /* \"#utility.yul\":5351:5482   */\n      tag_105\n      jump\t// in\n    tag_171:\n        /* \"#utility.yul\":5343:5482   */\n      swap1\n      pop\n        /* \"#utility.yul\":5070:5489   */\n      swap2\n      swap1\n      pop\n      jump\t// out\n        /* \"#utility.yul\":5495:5675   */\n    tag_106:\n        /* \"#utility.yul\":5543:5620   */\n      0x4e487b7100000000000000000000000000000000000000000000000000000000\n        /* \"#utility.yul\":5540:5541   */\n      0x00\n        /* \"#utility.yul\":5533:5621   */\n      mstore\n        /* \"#utility.yul\":5640:5644   */\n      0x11\n        /* \"#utility.yul\":5637:5638   */\n      0x04\n        /* \"#utility.yul\":5630:5645   */\n      mstore\n        /* \"#utility.yul\":5664:5668   */\n      0x24\n        /* \"#utility.yul\":5661:5662   */\n      0x00\n        /* \"#utility.yul\":5654:5669   */\n      revert\n        /* \"#utility.yul\":5681:5875   */\n    tag_46:\n        /* \"#utility.yul\":5721:5725   */\n      0x00\n        /* \"#utility.yul\":5741:5761   */\n      tag_174\n        /* \"#utility.yul\":5759:5760   */\n      dup3\n        /* \"#utility.yul\":5741:5761   */\n      tag_88\n      jump\t// in\n    tag_174:\n        /* \"#utility.yul\":5736:5761   */\n      swap2\n      pop\n        /* \"#utility.yul\":5775:5795   */\n      tag_175\n        /* \"#utility.yul\":5793:5794   */\n      dup4\n        /* \"#utility.yul\":5775:5795   */\n      tag_88\n      jump\t// in\n    tag_175:\n        /* \"#utility.yul\":5770:5795   */\n      swap3\n      pop\n        /* \"#utility.yul\":5819:5820   */\n      dup3\n        /* \"#utility.yul\":5816:5817   */\n      dup3\n        /* \"#utility.yul\":5812:5821   */\n      sub\n        /* \"#utility.yul\":5804:5821   */\n      swap1\n      pop\n        /* \"#utility.yul\":5843:5844   */\n      dup2\n        /* \"#utility.yul\":5837:5841   */\n      dup2\n        /* \"#utility.yul\":5834:5845   */\n      gt\n        /* \"#utility.yul\":5831:5868   */\n      iszero\n      tag_176\n      jumpi\n        /* \"#utility.yul\":5848:5866   */\n      tag_177\n      tag_106\n      jump\t// in\n    tag_177:\n        /* \"#utility.yul\":5831:5868   */\n    tag_176:\n        /* \"#utility.yul\":5681:5875   */\n      swap3\n      swap2\n      pop\n      pop\n      jump\t// out\n        /* \"#utility.yul\":5881:6072   */\n    tag_48:\n        /* \"#utility.yul\":5921:5924   */\n      0x00\n        /* \"#utility.yul\":5940:5960   */\n      tag_179\n        /* \"#utility.yul\":5958:5959   */\n      dup3\n        /* \"#utility.yul\":5940:5960   */\n      tag_88\n      jump\t// in\n    tag_179:\n        /* \"#utility.yul\":5935:5960   */\n      swap2\n      pop\n        /* \"#utility.yul\":5974:5994   */\n      tag_180\n        /* \"#utility.yul\":5992:5993   */\n      dup4\n        /* \"#utility.yul\":5974:5994   */\n      tag_88\n      jump\t// in\n    tag_180:\n        /* \"#utility.yul\":5969:5994   */\n      swap3\n      pop\n        /* \"#utility.yul\":6017:6018   */\n      dup3\n        /* \"#utility.yul\":6014:6015   */\n      dup3\n        /* \"#utility.yul\":6010:6019   */\n      add\n        /* \"#utility.yul\":6003:6019   */\n      swap1\n      pop\n        /* \"#utility.yul\":6038:6041   */\n      dup1\n        /* \"#utility.yul\":6035:6036   */\n      dup3\n        /* \"#utility.yul\":6032:6042   */\n      gt\n        /* \"#utility.yul\":6029:6065   */\n      iszero\n      tag_181\n      jumpi\n        /* \"#utility.yul\":6045:6063   */\n      tag_182\n      tag_106\n      jump\t// in\n    tag_182:\n        /* \"#utility.yul\":6029:6065   */\n    tag_181:\n        /* \"#utility.yul\":5881:6072   */\n      swap3\n      swap2\n      pop\n      pop\n      jump\t// out\n        /* \"#utility.yul\":6078:6246   */\n    tag_107:\n        /* \"#utility.yul\":6218:6238   */\n      0x596f752063616e206e6f7420736f6c7665210000000000000000000000000000\n        /* \"#utility.yul\":6214:6215   */\n      0x00\n        /* \"#utility.yul\":6206:6212   */\n      dup3\n        /* \"#utility.yul\":6202:6216   */\n      add\n        /* \"#utility.yul\":6195:6239   */\n      mstore\n        /* \"#utility.yul\":6078:6246   */\n      pop\n      jump\t// out\n        /* \"#utility.yul\":6252:6618   */\n    tag_108:\n        /* \"#utility.yul\":6394:6397   */\n      0x00\n        /* \"#utility.yul\":6415:6482   */\n      tag_185\n        /* \"#utility.yul\":6479:6481   */\n      0x12\n        /* \"#utility.yul\":6474:6477   */\n      dup4\n        /* \"#utility.yul\":6415:6482   */\n      tag_100\n      jump\t// in\n    tag_185:\n        /* \"#utility.yul\":6408:6482   */\n      swap2\n      pop\n        /* \"#utility.yul\":6491:6584   */\n      tag_186\n        /* \"#utility.yul\":6580:6583   */\n      dup3\n        /* \"#utility.yul\":6491:6584   */\n      tag_107\n      jump\t// in\n    tag_186:\n        /* \"#utility.yul\":6609:6611   */\n      0x20\n        /* \"#utility.yul\":6604:6607   */\n      dup3\n        /* \"#utility.yul\":6600:6612   */\n      add\n        /* \"#utility.yul\":6593:6612   */\n      swap1\n      pop\n        /* \"#utility.yul\":6252:6618   */\n      swap2\n      swap1\n      pop\n      jump\t// out\n        /* \"#utility.yul\":6624:7043   */\n    tag_55:\n        /* \"#utility.yul\":6790:6794   */\n      0x00\n        /* \"#utility.yul\":6828:6830   */\n      0x20\n        /* \"#utility.yul\":6817:6826   */\n      dup3\n        /* \"#utility.yul\":6813:6831   */\n      add\n        /* \"#utility.yul\":6805:6831   */\n      swap1\n      pop\n        /* \"#utility.yul\":6877:6886   */\n      dup2\n        /* \"#utility.yul\":6871:6875   */\n      dup2\n        /* \"#utility.yul\":6867:6887   */\n      sub\n        /* \"#utility.yul\":6863:6864   */\n      0x00\n        /* \"#utility.yul\":6852:6861   */\n      dup4\n        /* \"#utility.yul\":6848:6865   */\n      add\n        /* \"#utility.yul\":6841:6888   */\n      mstore\n        /* \"#utility.yul\":6905:7036   */\n      tag_188\n        /* \"#utility.yul\":7031:7035   */\n      dup2\n        /* \"#utility.yul\":6905:7036   */\n      tag_108\n      jump\t// in\n    tag_188:\n        /* \"#utility.yul\":6897:7036   */\n      swap1\n      pop\n        /* \"#utility.yul\":6624:7043   */\n      swap2\n      swap1\n      pop\n      jump\t// out\n        /* \"#utility.yul\":7049:7224   */\n    tag_109:\n        /* \"#utility.yul\":7189:7216   */\n      0x56616c7565203c203130212043616e206e6f7420736f6c766500000000000000\n        /* \"#utility.yul\":7185:7186   */\n      0x00\n        /* \"#utility.yul\":7177:7183   */\n      dup3\n        /* \"#utility.yul\":7173:7187   */\n      add\n        /* \"#utility.yul\":7166:7217   */\n      mstore\n        /* \"#utility.yul\":7049:7224   */\n      pop\n      jump\t// out\n        /* \"#utility.yul\":7230:7596   */\n    tag_110:\n        /* \"#utility.yul\":7372:7375   */\n      0x00\n        /* \"#utility.yul\":7393:7460   */\n      tag_191\n        /* \"#utility.yul\":7457:7459   */\n      0x19\n        /* \"#utility.yul\":7452:7455   */\n      dup4\n        /* \"#utility.yul\":7393:7460   */\n      tag_100\n      jump\t// in\n    tag_191:\n        /* \"#utility.yul\":7386:7460   */\n      swap2\n      pop\n        /* \"#utility.yul\":7469:7562   */\n      tag_192\n        /* \"#utility.yul\":7558:7561   */\n      dup3\n        /* \"#utility.yul\":7469:7562   */\n      tag_109\n      jump\t// in\n    tag_192:\n        /* \"#utility.yul\":7587:7589   */\n      0x20\n        /* \"#utility.yul\":7582:7585   */\n      dup3\n        /* \"#utility.yul\":7578:7590   */\n      add\n        /* \"#utility.yul\":7571:7590   */\n      swap1\n      pop\n        /* \"#utility.yul\":7230:7596   */\n      swap2\n      swap1\n      pop\n      jump\t// out\n        /* \"#utility.yul\":7602:8021   */\n    tag_75:\n        /* \"#utility.yul\":7768:7772   */\n      0x00\n        /* \"#utility.yul\":7806:7808   */\n      0x20\n        /* \"#utility.yul\":7795:7804   */\n      dup3\n        /* \"#utility.yul\":7791:7809   */\n      add\n        /* \"#utility.yul\":7783:7809   */\n      swap1\n      pop\n        /* \"#utility.yul\":7855:7864   */\n      dup2\n        /* \"#utility.yul\":7849:7853   */\n      dup2\n        /* \"#utility.yul\":7845:7865   */\n      sub\n        /* \"#utility.yul\":7841:7842   */\n      0x00\n        /* \"#utility.yul\":7830:7839   */\n      dup4\n        /* \"#utility.yul\":7826:7843   */\n      add\n        /* \"#utility.yul\":7819:7866   */\n      mstore\n        /* \"#utility.yul\":7883:8014   */\n      tag_194\n        /* \"#utility.yul\":8009:8013   */\n      dup2\n        /* \"#utility.yul\":7883:8014   */\n      tag_110\n      jump\t// in\n    tag_194:\n        /* \"#utility.yul\":7875:8014   */\n      swap1\n      pop\n        /* \"#utility.yul\":7602:8021   */\n      swap2\n      swap1\n      pop\n      jump\t// out\n        /* \"#utility.yul\":8027:8437   */\n    tag_78:\n        /* \"#utility.yul\":8067:8074   */\n      0x00\n        /* \"#utility.yul\":8090:8110   */\n      tag_196\n        /* \"#utility.yul\":8108:8109   */\n      dup3\n        /* \"#utility.yul\":8090:8110   */\n      tag_88\n      jump\t// in\n    tag_196:\n        /* \"#utility.yul\":8085:8110   */\n      swap2\n      pop\n        /* \"#utility.yul\":8124:8144   */\n      tag_197\n        /* \"#utility.yul\":8142:8143   */\n      dup4\n        /* \"#utility.yul\":8124:8144   */\n      tag_88\n      jump\t// in\n    tag_197:\n        /* \"#utility.yul\":8119:8144   */\n      swap3\n      pop\n        /* \"#utility.yul\":8179:8180   */\n      dup3\n        /* \"#utility.yul\":8176:8177   */\n      dup3\n        /* \"#utility.yul\":8172:8181   */\n      mul\n        /* \"#utility.yul\":8201:8231   */\n      tag_198\n        /* \"#utility.yul\":8219:8230   */\n      dup2\n        /* \"#utility.yul\":8201:8231   */\n      tag_88\n      jump\t// in\n    tag_198:\n        /* \"#utility.yul\":8190:8231   */\n      swap2\n      pop\n        /* \"#utility.yul\":8380:8381   */\n      dup3\n        /* \"#utility.yul\":8371:8378   */\n      dup3\n        /* \"#utility.yul\":8367:8382   */\n      div\n        /* \"#utility.yul\":8364:8365   */\n      dup5\n        /* \"#utility.yul\":8361:8383   */\n      eq\n        /* \"#utility.yul\":8341:8342   */\n      dup4\n        /* \"#utility.yul\":8334:8343   */\n      iszero\n        /* \"#utility.yul\":8314:8397   */\n      or\n        /* \"#utility.yul\":8291:8430   */\n      tag_199\n      jumpi\n        /* \"#utility.yul\":8410:8428   */\n      tag_200\n      tag_106\n      jump\t// in\n    tag_200:\n        /* \"#utility.yul\":8291:8430   */\n    tag_199:\n        /* \"#utility.yul\":8075:8437   */\n      pop\n        /* \"#utility.yul\":8027:8437   */\n      swap3\n      swap2\n      pop\n      pop\n      jump\t// out\n        /* \"#utility.yul\":8443:8623   */\n    tag_111:\n        /* \"#utility.yul\":8491:8568   */\n      0x4e487b7100000000000000000000000000000000000000000000000000000000\n        /* \"#utility.yul\":8488:8489   */\n      0x00\n        /* \"#utility.yul\":8481:8569   */\n      mstore\n        /* \"#utility.yul\":8588:8592   */\n      0x12\n        /* \"#utility.yul\":8585:8586   */\n      0x04\n        /* \"#utility.yul\":8578:8593   */\n      mstore\n        /* \"#utility.yul\":8612:8616   */\n      0x24\n        /* \"#utility.yul\":8609:8610   */\n      0x00\n        /* \"#utility.yul\":8602:8617   */\n      revert\n        /* \"#utility.yul\":8629:8814   */\n    tag_80:\n        /* \"#utility.yul\":8669:8670   */\n      0x00\n        /* \"#utility.yul\":8686:8706   */\n      tag_203\n        /* \"#utility.yul\":8704:8705   */\n      dup3\n        /* \"#utility.yul\":8686:8706   */\n      tag_88\n      jump\t// in\n    tag_203:\n        /* \"#utility.yul\":8681:8706   */\n      swap2\n      pop\n        /* \"#utility.yul\":8720:8740   */\n      tag_204\n        /* \"#utility.yul\":8738:8739   */\n      dup4\n        /* \"#utility.yul\":8720:8740   */\n      tag_88\n      jump\t// in\n    tag_204:\n        /* \"#utility.yul\":8715:8740   */\n      swap3\n      pop\n        /* \"#utility.yul\":8759:8760   */\n      dup3\n        /* \"#utility.yul\":8749:8784   */\n      tag_205\n      jumpi\n        /* \"#utility.yul\":8764:8782   */\n      tag_206\n      tag_111\n      jump\t// in\n    tag_206:\n        /* \"#utility.yul\":8749:8784   */\n    tag_205:\n        /* \"#utility.yul\":8806:8807   */\n      dup3\n        /* \"#utility.yul\":8803:8804   */\n      dup3\n        /* \"#utility.yul\":8799:8808   */\n      div\n        /* \"#utility.yul\":8794:8808   */\n      swap1\n      pop\n        /* \"#utility.yul\":8629:8814   */\n      swap3\n      swap2\n      pop\n      pop\n      jump\t// out\n\n    auxdata: 0xa2646970667358221220537507ff621f8b5b79cdeb6ad1f013a9d9d3ed7a9fe888cd6d505fd9915d7ce864736f6c63430008180033\n}\n",
				"bytecode": {
					"linkReferences": {},
					"object": "608060405234801561000f575f80fd5b5033805f806101000a81548173ffffffffffffffffffffffffffffffffffffffff021916908373ffffffffffffffffffffffffffffffffffffffff160217905550600160025f8373ffffffffffffffffffffffffffffffffffffffff1673ffffffffffffffffffffffffffffffffffffffff1681526020019081526020015f208190555050610de1806100a15f395ff3fe608060405234801561000f575f80fd5b506004361061007b575f3560e01c80632dcaf1cf116100595780632dcaf1cf146100d5578063496fb803146100f15780636369ec9b1461010f578063b6b55f251461013f5761007b565b80630ef678871461007f57806314174f331461009d578063285addad146100b9575b5f80fd5b61008761015b565b6040516100949190610925565b60405180910390f35b6100b760048036038101906100b2919061096c565b61019f565b005b6100d360048036038101906100ce9190610997565b6102ca565b005b6100ef60048036038101906100ea9190610a2f565b6102d8565b005b6100f9610373565b6040516101069190610925565b60405180910390f35b61012960048036038101906101249190610a6d565b6103b7565b6040516101369190610b22565b60405180910390f35b6101596004803603810190610154919061096c565b61057c565b005b5f60045f3373ffffffffffffffffffffffffffffffffffffffff1673ffffffffffffffffffffffffffffffffffffffff1681526020019081526020015f2054905090565b8060035f3373ffffffffffffffffffffffffffffffffffffffff1673ffffffffffffffffffffffffffffffffffffffff1681526020019081526020015f2054811115610220576040517f08c379a000000000000000000000000000000000000000000000000000000000815260040161021790610b8c565b60405180910390fd5b8160035f3373ffffffffffffffffffffffffffffffffffffffff1673ffffffffffffffffffffffffffffffffffffffff1681526020019081526020015f205f82825461026c9190610bd7565b925050819055508160045f3373ffffffffffffffffffffffffffffffffffffffff1673ffffffffffffffffffffffffffffffffffffffff1681526020019081526020015f205f8282546102bf9190610c0a565b925050819055505050565b6102d48282610625565b5050565b5f8054906101000a900473ffffffffffffffffffffffffffffffffffffffff1673ffffffffffffffffffffffffffffffffffffffff163373ffffffffffffffffffffffffffffffffffffffff1614610365576040517f08c379a000000000000000000000000000000000000000000000000000000000815260040161035c90610c87565b60405180910390fd5b61036f82826107a6565b5050565b5f60055f3373ffffffffffffffffffffffffffffffffffffffff1673ffffffffffffffffffffffffffffffffffffffff1681526020019081526020015f2054905090565b6060600160025f8473ffffffffffffffffffffffffffffffffffffffff1673ffffffffffffffffffffffffffffffffffffffff1681526020019081526020015f20540361043b576040518060400160405280600581526020017f41646d696e0000000000000000000000000000000000000000000000000000008152509050610577565b6002805f8473ffffffffffffffffffffffffffffffffffffffff1673ffffffffffffffffffffffffffffffffffffffff1681526020019081526020015f2054036104bc576040518060400160405280600781526020017f4d616e61676572000000000000000000000000000000000000000000000000008152509050610577565b600360025f8473ffffffffffffffffffffffffffffffffffffffff1673ffffffffffffffffffffffffffffffffffffffff1681526020019081526020015f20540361053e576040518060400160405280600481526020017f55736572000000000000000000000000000000000000000000000000000000008152509050610577565b6040518060400160405280601181526020017f43616e206e6f742066696e64206461746100000000000000000000000000000081525090505b919050565b8060035f3373ffffffffffffffffffffffffffffffffffffffff1673ffffffffffffffffffffffffffffffffffffffff1681526020019081526020015f205f8282546105c89190610c0a565b925050819055508060045f3373ffffffffffffffffffffffffffffffffffffffff1673ffffffffffffffffffffffffffffffffffffffff1681526020019081526020015f205f82825461061b9190610bd7565b9250508190555050565b81600a60045f3373ffffffffffffffffffffffffffffffffffffffff1673ffffffffffffffffffffffffffffffffffffffff1681526020019081526020015f2054106106a6576040517f08c379a000000000000000000000000000000000000000000000000000000000815260040161069d90610c87565b60405180910390fd5b600a8110156106ea576040517f08c379a00000000000000000000000000000000000000000000000000000000081526004016106e190610cef565b60405180910390fd5b82600a83856106f99190610d0d565b6107039190610d7b565b61070d9190610c0a565b60055f3373ffffffffffffffffffffffffffffffffffffffff1673ffffffffffffffffffffffffffffffffffffffff1681526020019081526020015f20819055508260045f3373ffffffffffffffffffffffffffffffffffffffff1673ffffffffffffffffffffffffffffffffffffffff1681526020019081526020015f205f82825461079a9190610c0a565b92505081905550505050565b6001810361083557815f806101000a81548173ffffffffffffffffffffffffffffffffffffffff021916908373ffffffffffffffffffffffffffffffffffffffff160217905550600160025f8473ffffffffffffffffffffffffffffffffffffffff1673ffffffffffffffffffffffffffffffffffffffff1681526020019081526020015f2081905550610909565b600281036108c4578160015f6101000a81548173ffffffffffffffffffffffffffffffffffffffff021916908373ffffffffffffffffffffffffffffffffffffffff1602179055506002805f8473ffffffffffffffffffffffffffffffffffffffff1673ffffffffffffffffffffffffffffffffffffffff1681526020019081526020015f2081905550610908565b600360025f8473ffffffffffffffffffffffffffffffffffffffff1673ffffffffffffffffffffffffffffffffffffffff1681526020019081526020015f20819055505b5b5050565b5f819050919050565b61091f8161090d565b82525050565b5f6020820190506109385f830184610916565b92915050565b5f80fd5b61094b8161090d565b8114610955575f80fd5b50565b5f8135905061096681610942565b92915050565b5f602082840312156109815761098061093e565b5b5f61098e84828501610958565b91505092915050565b5f80604083850312156109ad576109ac61093e565b5b5f6109ba85828601610958565b92505060206109cb85828601610958565b9150509250929050565b5f73ffffffffffffffffffffffffffffffffffffffff82169050919050565b5f6109fe826109d5565b9050919050565b610a0e816109f4565b8114610a18575f80fd5b50565b5f81359050610a2981610a05565b92915050565b5f8060408385031215610a4557610a4461093e565b5b5f610a5285828601610a1b565b9250506020610a6385828601610958565b9150509250929050565b5f60208284031215610a8257610a8161093e565b5b5f610a8f84828501610a1b565b91505092915050565b5f81519050919050565b5f82825260208201905092915050565b5f5b83811015610acf578082015181840152602081019050610ab4565b5f8484015250505050565b5f601f19601f8301169050919050565b5f610af482610a98565b610afe8185610aa2565b9350610b0e818560208601610ab2565b610b1781610ada565b840191505092915050565b5f6020820190508181035f830152610b3a8184610aea565b905092915050565b7f596f75206e6f7420656e6f756768206d6f6e65792100000000000000000000005f82015250565b5f610b76601583610aa2565b9150610b8182610b42565b602082019050919050565b5f6020820190508181035f830152610ba381610b6a565b9050919050565b7f4e487b71000000000000000000000000000000000000000000000000000000005f52601160045260245ffd5b5f610be18261090d565b9150610bec8361090d565b9250828203905081811115610c0457610c03610baa565b5b92915050565b5f610c148261090d565b9150610c1f8361090d565b9250828201905080821115610c3757610c36610baa565b5b92915050565b7f596f752063616e206e6f7420736f6c76652100000000000000000000000000005f82015250565b5f610c71601283610aa2565b9150610c7c82610c3d565b602082019050919050565b5f6020820190508181035f830152610c9e81610c65565b9050919050565b7f56616c7565203c203130212043616e206e6f7420736f6c7665000000000000005f82015250565b5f610cd9601983610aa2565b9150610ce482610ca5565b602082019050919050565b5f6020820190508181035f830152610d0681610ccd565b9050919050565b5f610d178261090d565b9150610d228361090d565b9250828202610d308161090d565b91508282048414831517610d4757610d46610baa565b5b5092915050565b7f4e487b71000000000000000000000000000000000000000000000000000000005f52601260045260245ffd5b5f610d858261090d565b9150610d908361090d565b925082610da057610d9f610d4e565b5b82820490509291505056fea2646970667358221220537507ff621f8b5b79cdeb6ad1f013a9d9d3ed7a9fe888cd6d505fd9915d7ce864736f6c63430008180033",
					"opcodes": "PUSH1 0x80 PUSH1 0x40 MSTORE CALLVALUE DUP1 ISZERO PUSH2 0xF JUMPI PUSH0 DUP1 REVERT JUMPDEST POP CALLER DUP1 PUSH0 DUP1 PUSH2 0x100 EXP DUP2 SLOAD DUP2 PUSH20 0xFFFFFFFFFFFFFFFFFFFFFFFFFFFFFFFFFFFFFFFF MUL NOT AND SWAP1 DUP4 PUSH20 0xFFFFFFFFFFFFFFFFFFFFFFFFFFFFFFFFFFFFFFFF AND MUL OR SWAP1 SSTORE POP PUSH1 0x1 PUSH1 0x2 PUSH0 DUP4 PUSH20 0xFFFFFFFFFFFFFFFFFFFFFFFFFFFFFFFFFFFFFFFF AND PUSH20 0xFFFFFFFFFFFFFFFFFFFFFFFFFFFFFFFFFFFFFFFF AND DUP2 MSTORE PUSH1 0x20 ADD SWAP1 DUP2 MSTORE PUSH1 0x20 ADD PUSH0 KECCAK256 DUP2 SWAP1 SSTORE POP POP PUSH2 0xDE1 DUP1 PUSH2 0xA1 PUSH0 CODECOPY PUSH0 RETURN INVALID PUSH1 0x80 PUSH1 0x40 MSTORE CALLVALUE DUP1 ISZERO PUSH2 0xF JUMPI PUSH0 DUP1 REVERT JUMPDEST POP PUSH1 0x4 CALLDATASIZE LT PUSH2 0x7B JUMPI PUSH0 CALLDATALOAD PUSH1 0xE0 SHR DUP1 PUSH4 0x2DCAF1CF GT PUSH2 0x59 JUMPI DUP1 PUSH4 0x2DCAF1CF EQ PUSH2 0xD5 JUMPI DUP1 PUSH4 0x496FB803 EQ PUSH2 0xF1 JUMPI DUP1 PUSH4 0x6369EC9B EQ PUSH2 0x10F JUMPI DUP1 PUSH4 0xB6B55F25 EQ PUSH2 0x13F JUMPI PUSH2 0x7B JUMP JUMPDEST DUP1 PUSH4 0xEF67887 EQ PUSH2 0x7F JUMPI DUP1 PUSH4 0x14174F33 EQ PUSH2 0x9D JUMPI DUP1 PUSH4 0x285ADDAD EQ PUSH2 0xB9 JUMPI JUMPDEST PUSH0 DUP1 REVERT JUMPDEST PUSH2 0x87 PUSH2 0x15B JUMP JUMPDEST PUSH1 0x40 MLOAD PUSH2 0x94 SWAP2 SWAP1 PUSH2 0x925 JUMP JUMPDEST PUSH1 0x40 MLOAD DUP1 SWAP2 SUB SWAP1 RETURN JUMPDEST PUSH2 0xB7 PUSH1 0x4 DUP1 CALLDATASIZE SUB DUP2 ADD SWAP1 PUSH2 0xB2 SWAP2 SWAP1 PUSH2 0x96C JUMP JUMPDEST PUSH2 0x19F JUMP JUMPDEST STOP JUMPDEST PUSH2 0xD3 PUSH1 0x4 DUP1 CALLDATASIZE SUB DUP2 ADD SWAP1 PUSH2 0xCE SWAP2 SWAP1 PUSH2 0x997 JUMP JUMPDEST PUSH2 0x2CA JUMP JUMPDEST STOP JUMPDEST PUSH2 0xEF PUSH1 0x4 DUP1 CALLDATASIZE SUB DUP2 ADD SWAP1 PUSH2 0xEA SWAP2 SWAP1 PUSH2 0xA2F JUMP JUMPDEST PUSH2 0x2D8 JUMP JUMPDEST STOP JUMPDEST PUSH2 0xF9 PUSH2 0x373 JUMP JUMPDEST PUSH1 0x40 MLOAD PUSH2 0x106 SWAP2 SWAP1 PUSH2 0x925 JUMP JUMPDEST PUSH1 0x40 MLOAD DUP1 SWAP2 SUB SWAP1 RETURN JUMPDEST PUSH2 0x129 PUSH1 0x4 DUP1 CALLDATASIZE SUB DUP2 ADD SWAP1 PUSH2 0x124 SWAP2 SWAP1 PUSH2 0xA6D JUMP JUMPDEST PUSH2 0x3B7 JUMP JUMPDEST PUSH1 0x40 MLOAD PUSH2 0x136 SWAP2 SWAP1 PUSH2 0xB22 JUMP JUMPDEST PUSH1 0x40 MLOAD DUP1 SWAP2 SUB SWAP1 RETURN JUMPDEST PUSH2 0x159 PUSH1 0x4 DUP1 CALLDATASIZE SUB DUP2 ADD SWAP1 PUSH2 0x154 SWAP2 SWAP1 PUSH2 0x96C JUMP JUMPDEST PUSH2 0x57C JUMP JUMPDEST STOP JUMPDEST PUSH0 PUSH1 0x4 PUSH0 CALLER PUSH20 0xFFFFFFFFFFFFFFFFFFFFFFFFFFFFFFFFFFFFFFFF AND PUSH20 0xFFFFFFFFFFFFFFFFFFFFFFFFFFFFFFFFFFFFFFFF AND DUP2 MSTORE PUSH1 0x20 ADD SWAP1 DUP2 MSTORE PUSH1 0x20 ADD PUSH0 KECCAK256 SLOAD SWAP1 POP SWAP1 JUMP JUMPDEST DUP1 PUSH1 0x3 PUSH0 CALLER PUSH20 0xFFFFFFFFFFFFFFFFFFFFFFFFFFFFFFFFFFFFFFFF AND PUSH20 0xFFFFFFFFFFFFFFFFFFFFFFFFFFFFFFFFFFFFFFFF AND DUP2 MSTORE PUSH1 0x20 ADD SWAP1 DUP2 MSTORE PUSH1 0x20 ADD PUSH0 KECCAK256 SLOAD DUP2 GT ISZERO PUSH2 0x220 JUMPI PUSH1 0x40 MLOAD PUSH32 0x8C379A000000000000000000000000000000000000000000000000000000000 DUP2 MSTORE PUSH1 0x4 ADD PUSH2 0x217 SWAP1 PUSH2 0xB8C JUMP JUMPDEST PUSH1 0x40 MLOAD DUP1 SWAP2 SUB SWAP1 REVERT JUMPDEST DUP2 PUSH1 0x3 PUSH0 CALLER PUSH20 0xFFFFFFFFFFFFFFFFFFFFFFFFFFFFFFFFFFFFFFFF AND PUSH20 0xFFFFFFFFFFFFFFFFFFFFFFFFFFFFFFFFFFFFFFFF AND DUP2 MSTORE PUSH1 0x20 ADD SWAP1 DUP2 MSTORE PUSH1 0x20 ADD PUSH0 KECCAK256 PUSH0 DUP3 DUP3 SLOAD PUSH2 0x26C SWAP2 SWAP1 PUSH2 0xBD7 JUMP JUMPDEST SWAP3 POP POP DUP2 SWAP1 SSTORE POP DUP2 PUSH1 0x4 PUSH0 CALLER PUSH20 0xFFFFFFFFFFFFFFFFFFFFFFFFFFFFFFFFFFFFFFFF AND PUSH20 0xFFFFFFFFFFFFFFFFFFFFFFFFFFFFFFFFFFFFFFFF AND DUP2 MSTORE PUSH1 0x20 ADD SWAP1 DUP2 MSTORE PUSH1 0x20 ADD PUSH0 KECCAK256 PUSH0 DUP3 DUP3 SLOAD PUSH2 0x2BF SWAP2 SWAP1 PUSH2 0xC0A JUMP JUMPDEST SWAP3 POP POP DUP2 SWAP1 SSTORE POP POP POP JUMP JUMPDEST PUSH2 0x2D4 DUP3 DUP3 PUSH2 0x625 JUMP JUMPDEST POP POP JUMP JUMPDEST PUSH0 DUP1 SLOAD SWAP1 PUSH2 0x100 EXP SWAP1 DIV PUSH20 0xFFFFFFFFFFFFFFFFFFFFFFFFFFFFFFFFFFFFFFFF AND PUSH20 0xFFFFFFFFFFFFFFFFFFFFFFFFFFFFFFFFFFFFFFFF AND CALLER PUSH20 0xFFFFFFFFFFFFFFFFFFFFFFFFFFFFFFFFFFFFFFFF AND EQ PUSH2 0x365 JUMPI PUSH1 0x40 MLOAD PUSH32 0x8C379A000000000000000000000000000000000000000000000000000000000 DUP2 MSTORE PUSH1 0x4 ADD PUSH2 0x35C SWAP1 PUSH2 0xC87 JUMP JUMPDEST PUSH1 0x40 MLOAD DUP1 SWAP2 SUB SWAP1 REVERT JUMPDEST PUSH2 0x36F DUP3 DUP3 PUSH2 0x7A6 JUMP JUMPDEST POP POP JUMP JUMPDEST PUSH0 PUSH1 0x5 PUSH0 CALLER PUSH20 0xFFFFFFFFFFFFFFFFFFFFFFFFFFFFFFFFFFFFFFFF AND PUSH20 0xFFFFFFFFFFFFFFFFFFFFFFFFFFFFFFFFFFFFFFFF AND DUP2 MSTORE PUSH1 0x20 ADD SWAP1 DUP2 MSTORE PUSH1 0x20 ADD PUSH0 KECCAK256 SLOAD SWAP1 POP SWAP1 JUMP JUMPDEST PUSH1 0x60 PUSH1 0x1 PUSH1 0x2 PUSH0 DUP5 PUSH20 0xFFFFFFFFFFFFFFFFFFFFFFFFFFFFFFFFFFFFFFFF AND PUSH20 0xFFFFFFFFFFFFFFFFFFFFFFFFFFFFFFFFFFFFFFFF AND DUP2 MSTORE PUSH1 0x20 ADD SWAP1 DUP2 MSTORE PUSH1 0x20 ADD PUSH0 KECCAK256 SLOAD SUB PUSH2 0x43B JUMPI PUSH1 0x40 MLOAD DUP1 PUSH1 0x40 ADD PUSH1 0x40 MSTORE DUP1 PUSH1 0x5 DUP2 MSTORE PUSH1 0x20 ADD PUSH32 0x41646D696E000000000000000000000000000000000000000000000000000000 DUP2 MSTORE POP SWAP1 POP PUSH2 0x577 JUMP JUMPDEST PUSH1 0x2 DUP1 PUSH0 DUP5 PUSH20 0xFFFFFFFFFFFFFFFFFFFFFFFFFFFFFFFFFFFFFFFF AND PUSH20 0xFFFFFFFFFFFFFFFFFFFFFFFFFFFFFFFFFFFFFFFF AND DUP2 MSTORE PUSH1 0x20 ADD SWAP1 DUP2 MSTORE PUSH1 0x20 ADD PUSH0 KECCAK256 SLOAD SUB PUSH2 0x4BC JUMPI PUSH1 0x40 MLOAD DUP1 PUSH1 0x40 ADD PUSH1 0x40 MSTORE DUP1 PUSH1 0x7 DUP2 MSTORE PUSH1 0x20 ADD PUSH32 0x4D616E6167657200000000000000000000000000000000000000000000000000 DUP2 MSTORE POP SWAP1 POP PUSH2 0x577 JUMP JUMPDEST PUSH1 0x3 PUSH1 0x2 PUSH0 DUP5 PUSH20 0xFFFFFFFFFFFFFFFFFFFFFFFFFFFFFFFFFFFFFFFF AND PUSH20 0xFFFFFFFFFFFFFFFFFFFFFFFFFFFFFFFFFFFFFFFF AND DUP2 MSTORE PUSH1 0x20 ADD SWAP1 DUP2 MSTORE PUSH1 0x20 ADD PUSH0 KECCAK256 SLOAD SUB PUSH2 0x53E JUMPI PUSH1 0x40 MLOAD DUP1 PUSH1 0x40 ADD PUSH1 0x40 MSTORE DUP1 PUSH1 0x4 DUP2 MSTORE PUSH1 0x20 ADD PUSH32 0x5573657200000000000000000000000000000000000000000000000000000000 DUP2 MSTORE POP SWAP1 POP PUSH2 0x577 JUMP JUMPDEST PUSH1 0x40 MLOAD DUP1 PUSH1 0x40 ADD PUSH1 0x40 MSTORE DUP1 PUSH1 0x11 DUP2 MSTORE PUSH1 0x20 ADD PUSH32 0x43616E206E6F742066696E642064617461000000000000000000000000000000 DUP2 MSTORE POP SWAP1 POP JUMPDEST SWAP2 SWAP1 POP JUMP JUMPDEST DUP1 PUSH1 0x3 PUSH0 CALLER PUSH20 0xFFFFFFFFFFFFFFFFFFFFFFFFFFFFFFFFFFFFFFFF AND PUSH20 0xFFFFFFFFFFFFFFFFFFFFFFFFFFFFFFFFFFFFFFFF AND DUP2 MSTORE PUSH1 0x20 ADD SWAP1 DUP2 MSTORE PUSH1 0x20 ADD PUSH0 KECCAK256 PUSH0 DUP3 DUP3 SLOAD PUSH2 0x5C8 SWAP2 SWAP1 PUSH2 0xC0A JUMP JUMPDEST SWAP3 POP POP DUP2 SWAP1 SSTORE POP DUP1 PUSH1 0x4 PUSH0 CALLER PUSH20 0xFFFFFFFFFFFFFFFFFFFFFFFFFFFFFFFFFFFFFFFF AND PUSH20 0xFFFFFFFFFFFFFFFFFFFFFFFFFFFFFFFFFFFFFFFF AND DUP2 MSTORE PUSH1 0x20 ADD SWAP1 DUP2 MSTORE PUSH1 0x20 ADD PUSH0 KECCAK256 PUSH0 DUP3 DUP3 SLOAD PUSH2 0x61B SWAP2 SWAP1 PUSH2 0xBD7 JUMP JUMPDEST SWAP3 POP POP DUP2 SWAP1 SSTORE POP POP JUMP JUMPDEST DUP2 PUSH1 0xA PUSH1 0x4 PUSH0 CALLER PUSH20 0xFFFFFFFFFFFFFFFFFFFFFFFFFFFFFFFFFFFFFFFF AND PUSH20 0xFFFFFFFFFFFFFFFFFFFFFFFFFFFFFFFFFFFFFFFF AND DUP2 MSTORE PUSH1 0x20 ADD SWAP1 DUP2 MSTORE PUSH1 0x20 ADD PUSH0 KECCAK256 SLOAD LT PUSH2 0x6A6 JUMPI PUSH1 0x40 MLOAD PUSH32 0x8C379A000000000000000000000000000000000000000000000000000000000 DUP2 MSTORE PUSH1 0x4 ADD PUSH2 0x69D SWAP1 PUSH2 0xC87 JUMP JUMPDEST PUSH1 0x40 MLOAD DUP1 SWAP2 SUB SWAP1 REVERT JUMPDEST PUSH1 0xA DUP2 LT ISZERO PUSH2 0x6EA JUMPI PUSH1 0x40 MLOAD PUSH32 0x8C379A000000000000000000000000000000000000000000000000000000000 DUP2 MSTORE PUSH1 0x4 ADD PUSH2 0x6E1 SWAP1 PUSH2 0xCEF JUMP JUMPDEST PUSH1 0x40 MLOAD DUP1 SWAP2 SUB SWAP1 REVERT JUMPDEST DUP3 PUSH1 0xA DUP4 DUP6 PUSH2 0x6F9 SWAP2 SWAP1 PUSH2 0xD0D JUMP JUMPDEST PUSH2 0x703 SWAP2 SWAP1 PUSH2 0xD7B JUMP JUMPDEST PUSH2 0x70D SWAP2 SWAP1 PUSH2 0xC0A JUMP JUMPDEST PUSH1 0x5 PUSH0 CALLER PUSH20 0xFFFFFFFFFFFFFFFFFFFFFFFFFFFFFFFFFFFFFFFF AND PUSH20 0xFFFFFFFFFFFFFFFFFFFFFFFFFFFFFFFFFFFFFFFF AND DUP2 MSTORE PUSH1 0x20 ADD SWAP1 DUP2 MSTORE PUSH1 0x20 ADD PUSH0 KECCAK256 DUP2 SWAP1 SSTORE POP DUP3 PUSH1 0x4 PUSH0 CALLER PUSH20 0xFFFFFFFFFFFFFFFFFFFFFFFFFFFFFFFFFFFFFFFF AND PUSH20 0xFFFFFFFFFFFFFFFFFFFFFFFFFFFFFFFFFFFFFFFF AND DUP2 MSTORE PUSH1 0x20 ADD SWAP1 DUP2 MSTORE PUSH1 0x20 ADD PUSH0 KECCAK256 PUSH0 DUP3 DUP3 SLOAD PUSH2 0x79A SWAP2 SWAP1 PUSH2 0xC0A JUMP JUMPDEST SWAP3 POP POP DUP2 SWAP1 SSTORE POP POP POP POP JUMP JUMPDEST PUSH1 0x1 DUP2 SUB PUSH2 0x835 JUMPI DUP2 PUSH0 DUP1 PUSH2 0x100 EXP DUP2 SLOAD DUP2 PUSH20 0xFFFFFFFFFFFFFFFFFFFFFFFFFFFFFFFFFFFFFFFF MUL NOT AND SWAP1 DUP4 PUSH20 0xFFFFFFFFFFFFFFFFFFFFFFFFFFFFFFFFFFFFFFFF AND MUL OR SWAP1 SSTORE POP PUSH1 0x1 PUSH1 0x2 PUSH0 DUP5 PUSH20 0xFFFFFFFFFFFFFFFFFFFFFFFFFFFFFFFFFFFFFFFF AND PUSH20 0xFFFFFFFFFFFFFFFFFFFFFFFFFFFFFFFFFFFFFFFF AND DUP2 MSTORE PUSH1 0x20 ADD SWAP1 DUP2 MSTORE PUSH1 0x20 ADD PUSH0 KECCAK256 DUP2 SWAP1 SSTORE POP PUSH2 0x909 JUMP JUMPDEST PUSH1 0x2 DUP2 SUB PUSH2 0x8C4 JUMPI DUP2 PUSH1 0x1 PUSH0 PUSH2 0x100 EXP DUP2 SLOAD DUP2 PUSH20 0xFFFFFFFFFFFFFFFFFFFFFFFFFFFFFFFFFFFFFFFF MUL NOT AND SWAP1 DUP4 PUSH20 0xFFFFFFFFFFFFFFFFFFFFFFFFFFFFFFFFFFFFFFFF AND MUL OR SWAP1 SSTORE POP PUSH1 0x2 DUP1 PUSH0 DUP5 PUSH20 0xFFFFFFFFFFFFFFFFFFFFFFFFFFFFFFFFFFFFFFFF AND PUSH20 0xFFFFFFFFFFFFFFFFFFFFFFFFFFFFFFFFFFFFFFFF AND DUP2 MSTORE PUSH1 0x20 ADD SWAP1 DUP2 MSTORE PUSH1 0x20 ADD PUSH0 KECCAK256 DUP2 SWAP1 SSTORE POP PUSH2 0x908 JUMP JUMPDEST PUSH1 0x3 PUSH1 0x2 PUSH0 DUP5 PUSH20 0xFFFFFFFFFFFFFFFFFFFFFFFFFFFFFFFFFFFFFFFF AND PUSH20 0xFFFFFFFFFFFFFFFFFFFFFFFFFFFFFFFFFFFFFFFF AND DUP2 MSTORE PUSH1 0x20 ADD SWAP1 DUP2 MSTORE PUSH1 0x20 ADD PUSH0 KECCAK256 DUP2 SWAP1 SSTORE POP JUMPDEST JUMPDEST POP POP JUMP JUMPDEST PUSH0 DUP2 SWAP1 POP SWAP2 SWAP1 POP JUMP JUMPDEST PUSH2 0x91F DUP2 PUSH2 0x90D JUMP JUMPDEST DUP3 MSTORE POP POP JUMP JUMPDEST PUSH0 PUSH1 0x20 DUP3 ADD SWAP1 POP PUSH2 0x938 PUSH0 DUP4 ADD DUP5 PUSH2 0x916 JUMP JUMPDEST SWAP3 SWAP2 POP POP JUMP JUMPDEST PUSH0 DUP1 REVERT JUMPDEST PUSH2 0x94B DUP2 PUSH2 0x90D JUMP JUMPDEST DUP2 EQ PUSH2 0x955 JUMPI PUSH0 DUP1 REVERT JUMPDEST POP JUMP JUMPDEST PUSH0 DUP2 CALLDATALOAD SWAP1 POP PUSH2 0x966 DUP2 PUSH2 0x942 JUMP JUMPDEST SWAP3 SWAP2 POP POP JUMP JUMPDEST PUSH0 PUSH1 0x20 DUP3 DUP5 SUB SLT ISZERO PUSH2 0x981 JUMPI PUSH2 0x980 PUSH2 0x93E JUMP JUMPDEST JUMPDEST PUSH0 PUSH2 0x98E DUP5 DUP3 DUP6 ADD PUSH2 0x958 JUMP JUMPDEST SWAP2 POP POP SWAP3 SWAP2 POP POP JUMP JUMPDEST PUSH0 DUP1 PUSH1 0x40 DUP4 DUP6 SUB SLT ISZERO PUSH2 0x9AD JUMPI PUSH2 0x9AC PUSH2 0x93E JUMP JUMPDEST JUMPDEST PUSH0 PUSH2 0x9BA DUP6 DUP3 DUP7 ADD PUSH2 0x958 JUMP JUMPDEST SWAP3 POP POP PUSH1 0x20 PUSH2 0x9CB DUP6 DUP3 DUP7 ADD PUSH2 0x958 JUMP JUMPDEST SWAP2 POP POP SWAP3 POP SWAP3 SWAP1 POP JUMP JUMPDEST PUSH0 PUSH20 0xFFFFFFFFFFFFFFFFFFFFFFFFFFFFFFFFFFFFFFFF DUP3 AND SWAP1 POP SWAP2 SWAP1 POP JUMP JUMPDEST PUSH0 PUSH2 0x9FE DUP3 PUSH2 0x9D5 JUMP JUMPDEST SWAP1 POP SWAP2 SWAP1 POP JUMP JUMPDEST PUSH2 0xA0E DUP2 PUSH2 0x9F4 JUMP JUMPDEST DUP2 EQ PUSH2 0xA18 JUMPI PUSH0 DUP1 REVERT JUMPDEST POP JUMP JUMPDEST PUSH0 DUP2 CALLDATALOAD SWAP1 POP PUSH2 0xA29 DUP2 PUSH2 0xA05 JUMP JUMPDEST SWAP3 SWAP2 POP POP JUMP JUMPDEST PUSH0 DUP1 PUSH1 0x40 DUP4 DUP6 SUB SLT ISZERO PUSH2 0xA45 JUMPI PUSH2 0xA44 PUSH2 0x93E JUMP JUMPDEST JUMPDEST PUSH0 PUSH2 0xA52 DUP6 DUP3 DUP7 ADD PUSH2 0xA1B JUMP JUMPDEST SWAP3 POP POP PUSH1 0x20 PUSH2 0xA63 DUP6 DUP3 DUP7 ADD PUSH2 0x958 JUMP JUMPDEST SWAP2 POP POP SWAP3 POP SWAP3 SWAP1 POP JUMP JUMPDEST PUSH0 PUSH1 0x20 DUP3 DUP5 SUB SLT ISZERO PUSH2 0xA82 JUMPI PUSH2 0xA81 PUSH2 0x93E JUMP JUMPDEST JUMPDEST PUSH0 PUSH2 0xA8F DUP5 DUP3 DUP6 ADD PUSH2 0xA1B JUMP JUMPDEST SWAP2 POP POP SWAP3 SWAP2 POP POP JUMP JUMPDEST PUSH0 DUP2 MLOAD SWAP1 POP SWAP2 SWAP1 POP JUMP JUMPDEST PUSH0 DUP3 DUP3 MSTORE PUSH1 0x20 DUP3 ADD SWAP1 POP SWAP3 SWAP2 POP POP JUMP JUMPDEST PUSH0 JUMPDEST DUP4 DUP2 LT ISZERO PUSH2 0xACF JUMPI DUP1 DUP3 ADD MLOAD DUP2 DUP5 ADD MSTORE PUSH1 0x20 DUP2 ADD SWAP1 POP PUSH2 0xAB4 JUMP JUMPDEST PUSH0 DUP5 DUP5 ADD MSTORE POP POP POP POP JUMP JUMPDEST PUSH0 PUSH1 0x1F NOT PUSH1 0x1F DUP4 ADD AND SWAP1 POP SWAP2 SWAP1 POP JUMP JUMPDEST PUSH0 PUSH2 0xAF4 DUP3 PUSH2 0xA98 JUMP JUMPDEST PUSH2 0xAFE DUP2 DUP6 PUSH2 0xAA2 JUMP JUMPDEST SWAP4 POP PUSH2 0xB0E DUP2 DUP6 PUSH1 0x20 DUP7 ADD PUSH2 0xAB2 JUMP JUMPDEST PUSH2 0xB17 DUP2 PUSH2 0xADA JUMP JUMPDEST DUP5 ADD SWAP2 POP POP SWAP3 SWAP2 POP POP JUMP JUMPDEST PUSH0 PUSH1 0x20 DUP3 ADD SWAP1 POP DUP2 DUP2 SUB PUSH0 DUP4 ADD MSTORE PUSH2 0xB3A DUP2 DUP5 PUSH2 0xAEA JUMP JUMPDEST SWAP1 POP SWAP3 SWAP2 POP POP JUMP JUMPDEST PUSH32 0x596F75206E6F7420656E6F756768206D6F6E6579210000000000000000000000 PUSH0 DUP3 ADD MSTORE POP JUMP JUMPDEST PUSH0 PUSH2 0xB76 PUSH1 0x15 DUP4 PUSH2 0xAA2 JUMP JUMPDEST SWAP2 POP PUSH2 0xB81 DUP3 PUSH2 0xB42 JUMP JUMPDEST PUSH1 0x20 DUP3 ADD SWAP1 POP SWAP2 SWAP1 POP JUMP JUMPDEST PUSH0 PUSH1 0x20 DUP3 ADD SWAP1 POP DUP2 DUP2 SUB PUSH0 DUP4 ADD MSTORE PUSH2 0xBA3 DUP2 PUSH2 0xB6A JUMP JUMPDEST SWAP1 POP SWAP2 SWAP1 POP JUMP JUMPDEST PUSH32 0x4E487B7100000000000000000000000000000000000000000000000000000000 PUSH0 MSTORE PUSH1 0x11 PUSH1 0x4 MSTORE PUSH1 0x24 PUSH0 REVERT JUMPDEST PUSH0 PUSH2 0xBE1 DUP3 PUSH2 0x90D JUMP JUMPDEST SWAP2 POP PUSH2 0xBEC DUP4 PUSH2 0x90D JUMP JUMPDEST SWAP3 POP DUP3 DUP3 SUB SWAP1 POP DUP2 DUP2 GT ISZERO PUSH2 0xC04 JUMPI PUSH2 0xC03 PUSH2 0xBAA JUMP JUMPDEST JUMPDEST SWAP3 SWAP2 POP POP JUMP JUMPDEST PUSH0 PUSH2 0xC14 DUP3 PUSH2 0x90D JUMP JUMPDEST SWAP2 POP PUSH2 0xC1F DUP4 PUSH2 0x90D JUMP JUMPDEST SWAP3 POP DUP3 DUP3 ADD SWAP1 POP DUP1 DUP3 GT ISZERO PUSH2 0xC37 JUMPI PUSH2 0xC36 PUSH2 0xBAA JUMP JUMPDEST JUMPDEST SWAP3 SWAP2 POP POP JUMP JUMPDEST PUSH32 0x596F752063616E206E6F7420736F6C7665210000000000000000000000000000 PUSH0 DUP3 ADD MSTORE POP JUMP JUMPDEST PUSH0 PUSH2 0xC71 PUSH1 0x12 DUP4 PUSH2 0xAA2 JUMP JUMPDEST SWAP2 POP PUSH2 0xC7C DUP3 PUSH2 0xC3D JUMP JUMPDEST PUSH1 0x20 DUP3 ADD SWAP1 POP SWAP2 SWAP1 POP JUMP JUMPDEST PUSH0 PUSH1 0x20 DUP3 ADD SWAP1 POP DUP2 DUP2 SUB PUSH0 DUP4 ADD MSTORE PUSH2 0xC9E DUP2 PUSH2 0xC65 JUMP JUMPDEST SWAP1 POP SWAP2 SWAP1 POP JUMP JUMPDEST PUSH32 0x56616C7565203C203130212043616E206E6F7420736F6C766500000000000000 PUSH0 DUP3 ADD MSTORE POP JUMP JUMPDEST PUSH0 PUSH2 0xCD9 PUSH1 0x19 DUP4 PUSH2 0xAA2 JUMP JUMPDEST SWAP2 POP PUSH2 0xCE4 DUP3 PUSH2 0xCA5 JUMP JUMPDEST PUSH1 0x20 DUP3 ADD SWAP1 POP SWAP2 SWAP1 POP JUMP JUMPDEST PUSH0 PUSH1 0x20 DUP3 ADD SWAP1 POP DUP2 DUP2 SUB PUSH0 DUP4 ADD MSTORE PUSH2 0xD06 DUP2 PUSH2 0xCCD JUMP JUMPDEST SWAP1 POP SWAP2 SWAP1 POP JUMP JUMPDEST PUSH0 PUSH2 0xD17 DUP3 PUSH2 0x90D JUMP JUMPDEST SWAP2 POP PUSH2 0xD22 DUP4 PUSH2 0x90D JUMP JUMPDEST SWAP3 POP DUP3 DUP3 MUL PUSH2 0xD30 DUP2 PUSH2 0x90D JUMP JUMPDEST SWAP2 POP DUP3 DUP3 DIV DUP5 EQ DUP4 ISZERO OR PUSH2 0xD47 JUMPI PUSH2 0xD46 PUSH2 0xBAA JUMP JUMPDEST JUMPDEST POP SWAP3 SWAP2 POP POP JUMP JUMPDEST PUSH32 0x4E487B7100000000000000000000000000000000000000000000000000000000 PUSH0 MSTORE PUSH1 0x12 PUSH1 0x4 MSTORE PUSH1 0x24 PUSH0 REVERT JUMPDEST PUSH0 PUSH2 0xD85 DUP3 PUSH2 0x90D JUMP JUMPDEST SWAP2 POP PUSH2 0xD90 DUP4 PUSH2 0x90D JUMP JUMPDEST SWAP3 POP DUP3 PUSH2 0xDA0 JUMPI PUSH2 0xD9F PUSH2 0xD4E JUMP JUMPDEST JUMPDEST DUP3 DUP3 DIV SWAP1 POP SWAP3 SWAP2 POP POP JUMP INVALID LOG2 PUSH5 0x6970667358 0x22 SLT KECCAK256 MSTORE8 PUSH22 0x7FF621F8B5B79CDEB6AD1F013A9D9D3ED7A9FE888CD PUSH14 0x505FD9915D7CE864736F6C634300 ADDMOD XOR STOP CALLER "
				},
				"gasEstimates": {
					"creation": {
						"codeDepositCost": "710600",
						"executionCost": "47217",
						"totalCost": "757817"
					},
					"external": {
						"Balance()": "2520",
						"addRoles(address,uint256)": "49346",
						"checkLoan()": "2541",
						"checking_roles(address)": "infinite",
						"deposit(uint256)": "infinite",
						"systemLoan(uint256,uint256)": "infinite",
						"withDraw(uint256)": "infinite"
					}
				},
				"methodIdentifiers": {
					"Balance()": "0ef67887",
					"addRoles(address,uint256)": "2dcaf1cf",
					"checkLoan()": "496fb803",
					"checking_roles(address)": "6369ec9b",
					"deposit(uint256)": "b6b55f25",
					"systemLoan(uint256,uint256)": "285addad",
					"withDraw(uint256)": "14174f33"
				}
			},
			"storageLayout": {
				"storage": [
					{
						"astId": 3,
						"contract": "contracts/BaiTapLon.sol:Financial_Operations",
						"label": "Adminstrator",
						"offset": 0,
						"slot": "0",
						"type": "t_address"
					},
					{
						"astId": 5,
						"contract": "contracts/BaiTapLon.sol:Financial_Operations",
						"label": "Manager",
						"offset": 0,
						"slot": "1",
						"type": "t_address"
					},
					{
						"astId": 25,
						"contract": "contracts/BaiTapLon.sol:Financial_Operations",
						"label": "UserRoles",
						"offset": 0,
						"slot": "2",
						"type": "t_mapping(t_address,t_uint256)"
					},
					{
						"astId": 125,
						"contract": "contracts/BaiTapLon.sol:Financial_Operations",
						"label": "Balance_Bank",
						"offset": 0,
						"slot": "3",
						"type": "t_mapping(t_address,t_uint256)"
					},
					{
						"astId": 129,
						"contract": "contracts/BaiTapLon.sol:Financial_Operations",
						"label": "Balances",
						"offset": 0,
						"slot": "4",
						"type": "t_mapping(t_address,t_uint256)"
					},
					{
						"astId": 172,
						"contract": "contracts/BaiTapLon.sol:Financial_Operations",
						"label": "loans",
						"offset": 0,
						"slot": "5",
						"type": "t_mapping(t_address,t_uint256)"
					}
				],
				"types": {
					"t_address": {
						"encoding": "inplace",
						"label": "address",
						"numberOfBytes": "20"
					},
					"t_mapping(t_address,t_uint256)": {
						"encoding": "mapping",
						"key": "t_address",
						"label": "mapping(address => uint256)",
						"numberOfBytes": "32",
						"value": "t_uint256"
					},
					"t_uint256": {
						"encoding": "inplace",
						"label": "uint256",
						"numberOfBytes": "32"
					}
				}
			},
			"userdoc": {
				"kind": "user",
				"methods": {},
				"version": 1
			}
		}
	}
}